:100000000C9462000C948A000C948A000C948A0070
:100010000C948A000C948A000C948A000C948A0038
:100020000C948A000C948A000C948A000C948A0028
:100030000C948A000C948A000C948A000C948A0018
:100040000C946F010C948A000C948A000C948A0022
:100050000C948A000C948A000C948A000C948A00F8
:100060000C948A000C948A000000000023002600F3
:10007000290000000000240027002A0000000000E2
:10008000250028002B0004040404040404040202D4
:100090000202020203030303030301020408102007
:1000A0004080010204081020010204081020000012
:1000B0000008000201000003040700000000000027
:1000C00000001B0611241FBECFEFD8E0DEBFCDBF5E
:1000D00011E0A0E0B1E0E2E6F1E102C005900D928E
:1000E000A030B107D9F725E0A0E0B1E001C01D9232
:1000F000A233B207E1F710E0C2E6D0E004C02197D6
:10010000FE010E94A908C136D107C9F70E94B901B2
:100110000C94AF080C940000E0912005F0912105AB
:10012000CF0102978E3F934050F4E15EFE4FDF0116
:1001300012978C91819385E0EF31F807C1F781E048
:1001400080932205809323050895833081F028F45D
:10015000813099F08230A9F008958730A9F0883075
:10016000C9F08430B1F4809180008F7D03C080910C
:1001700080008F7780938000089584B58F7784BD49
:10018000089584B58F7DFBCF8091B0008F778093E9
:10019000B00008958091B0008F7DF9CF1F93CF9369
:1001A000DF93282F30E0F901E255FF4F8491F901E8
:1001B000E656FF4FD491F901EA57FF4FC491CC2383
:1001C000A9F0162F81110E94A500EC2FF0E0EE0F90
:1001D000FF1FE458FF4FA591B4918FB7F894EC91AD
:1001E000111108C0D095DE23DC938FBFDF91CF9132
:1001F0001F910895DE2BF8CFCF93DF9390E0FC01A1
:10020000E656FF4F24918A579F4FFC018491882323
:10021000C9F090E0880F991FFC01EE58FF4FA5919F
:10022000B491FC01E458FF4FC591D49161110DC008
:100230009FB7F8948C91209582238C9388812823F2
:1002400028839FBFDF91CF910895623051F49FB70B
:10025000F8943C91822F809583238C93E8812E2BF8
:10026000EFCF8FB7F894EC912E2B2C938FBFEACF62
:100270008E50806480937C0080917A0080648093AB
:100280007A0080917A0086FDFCCF80917800909171
:10029000790008953FB7F89480911B0190911C015B
:1002A000A0911D01B0911E0126B5A89B05C02F3F4E
:1002B00019F00196A11DB11D3FBFBA2FA92F982F8C
:1002C0008827BC01CD01620F711D811D911D42E087
:1002D000660F771F881F991F4A95D1F708951F92BF
:1002E0000F920FB60F9211242F933F938F939F93EA
:1002F000AF93BF938091170190911801A0911901BC
:10030000B0911A013091160123E0230F2D3758F5D3
:100310000196A11DB11D20931601809317019093A2
:100320001801A0931901B0931A0180911B019091BB
:100330001C01A0911D01B0911E010196A11DB11DCE
:1003400080931B0190931C01A0931D01B0931E018B
:10035000BF91AF919F918F913F912F910F900FBEC1
:100360000F901F90189526E8230F0296A11DB11D2E
:10037000D2CF789484B5826084BD84B5816084BD19
:1003800085B5826085BD85B5816085BD80916E0033
:10039000816080936E001092810080918100826064
:1003A00080938100809181008160809381008091A1
:1003B00080008160809380008091B1008460809390
:1003C000B1008091B00081608093B00080917A008C
:1003D000846080937A0080917A00826080937A00B2
:1003E00080917A00816080937A0080917A008068A1
:1003F00080937A001092C10062E084E00E94FC00C9
:1004000061E083E00E94FC0060E081E10E94FC006A
:1004100060E082E10E94FC0061E08AE00E94FC0052
:1004200061E08BE00E94FC0060E08BE00E94CE0067
:1004300082E28093800089E1809381008FEF91E0D8
:10044000909387008093860010928B0010928A0010
:10045000CFE1EC2EC1E0FC2E11E0D0E0C0E0CE01F7
:100460000E945506F70181937F018F3F09F010E04C
:100470002196C115F4E0DF0791F7112341F08FE1D8
:1004800095E0EFE1F1E011928E179F07E1F70E94EE
:100490004A016093120170931301809314019093A9
:1004A0001501B2E02B2E312C02E00E944A01C090CF
:1004B0001201D0901301E0901401F09015014B014E
:1004C0005C018C189D08AE08BF0828EE821623E058
:1004D0009206A104B10408F45AC360931201709308
:1004E000130180931401909315018FB7F894C09075
:1004F0001701D0901801E0901901F0901A018FBFF8
:10050000E2EBF0E08491EEE9F0E0C491EAE8F0E09B
:10051000D491DD2379F081110E94A500ED2FF0E048
:10052000EE0FFF1FE859FF4FA591B4918C91C8239E
:1005300081E009F480E01092100110921101909175
:100540000F01891751F080930F01C0920A01D092D8
:100550000B01E0920C01F0920D0180910A01909143
:100560000B01A0910C01B0910D01B701A601481B30
:10057000590B6A0B7B0B8091060190910701A091AA
:100580000801B091090184179507A607B707B0F4D1
:1005900090910E0180910F01981781F080930E01C8
:1005A000911103C021E0813009F020E02093100177
:1005B000913009F4811190E0909311018091110123
:1005C000882351F0C0920201D0920301E09204010D
:1005D000F09205011092010180910E0181111CC061
:1005E00080910101811118C0809102019091030155
:1005F000A0910401B0910501C81AD90AEA0AFB0AC0
:10060000F8E5CF16F2E0DF06E104F10428F081E01E
:10061000809301018093250580911001882339F092
:1006200080910101811103C081E08093260581E161
:100630000E9438017C018EE00E943801092E000CD6
:10064000AA0BBB0BA701FF0C660B770B840F951F42
:10065000A61FB71FD0E0C0E0B7FD08C0EC018115B0
:100660009440A105B10514F0CFEFD3E082E10E94E0
:1006700038017C018FE00E943801092E000CAA0B82
:10068000BB0BA701FF0C660B770B840F951FA61FF2
:10069000B71FB7FDABC08115E4E09E07A105B1050A
:1006A0002CF48935F2E09F070CF49CC081E0809324
:1006B000000180E10E943801BC01990F880B990B61
:1006C0000E94870720E030EC4FE754E40E94DD06EB
:1006D0006B017C0120E030E0A9010E94D80687FD73
:1006E00088C020E030E040E85FE3C701B6010E9427
:1006F0003708181634F4C12CD12CF0E8EF2EFFE3A4
:10070000FF2E20E030E040E051E4C701B6010E9436
:100710003C080E94560711E0160F193008F06DC012
:10072000112309F46CC010932405C501B4010E9483
:1007300085072DEB37E346E855E30E943C082B0183
:100740003C01612F70E090E080E00E94850720E08E
:1007500030E040E05CE30E943C086B017C012091AA
:100760002705309128054091290550912A05C3019C
:10077000B2010E946C064B015C01AC019B01C701F8
:10078000B6010E94D8061816E4F5809227059092CB
:100790002805A0922905B0922A0520E030E040E823
:1007A00050E4C301B2010E943C0820912B05309116
:1007B0002C0540912D0550912E050E946C066B0171
:1007C0007C0120E030E040E85FE30E94370887FDCD
:1007D00053C120E030E040E85FE3C701B6010E946A
:1007E0006B06EDCF803991400CF063CF1092000181
:1007F00060CFC12CD12C760184CF18E094CF11E0CA
:1008000092CF10910001A7019601C501B4010E9489
:100810006B064B015C01AC019B01C701B6010E9454
:10082000D80618160CF089C08092270590922805EA
:10083000A0922905B0922A05BE01DD0F880B990B05
:100840000E94870720E030EC4FE754E40E94DD0669
:100850006B017C0180912505882309F47BC01092EF
:1008600025051092220581E080931F0520E030E0ED
:10087000A901C701B6010E94D80687FD67C020E024
:1008800030E040E85FE3C701B6010E943708181660
:1008900034F4C12CD12CE0E8EE2EEFE3FE2E20E064
:1008A00030E84FEF53E4C701B6010E943C0820E056
:1008B00030E040E05FE30E946C060E9456076093C0
:1008C0002F05709330051093310560931F0182E06E
:1008D000111101C080E0872B809320013092210507
:1008E0002092200580911F0590912605992309F4F7
:1008F0008FC010922605813031F48091220581113C
:1009000002C00E948C0000931F0520912001822FBD
:1009100090E0982F88278827917030911F01832BB2
:100920009093300580932F052695217020933105F3
:10093000309221052092200530CF10922705109289
:1009400028051092290510922A0576CFC12CD12CAA
:100950007601A5CF80911F05813021F68091220577
:100960008111C0CFC0912005D0912105CF3F83E0F8
:10097000D80708F03EC020E030E0A901C701B60169
:100980000E94D80687FD40C020E030E040E85FE3E9
:10099000C701B6010E943708181634F4C12CD12CB7
:1009A00070E8E72E7FE3F72E20E030E84FEF53E4C6
:1009B000C701B6010E943C0820E030E040E05FE360
:1009C0000E946C060E94560760932F0570933005B5
:1009D00010933105FE01E15EFE4F608382E011114C
:1009E00001C080E0872B81832296D0932105C0939C
:1009F000200580912005909121058115944008F4EF
:100A000071CF0E948C006ECFC12CD12C7601CCCF3F
:100A1000823009F0C2CE20912005309121052F3F70
:100A2000F3E03F07D0F4F901E15EFE4F4181842FEE
:100A300090E0982F8827882791705081852B90937C
:100A4000300580932F0546954170409331052E5F08
:100A50003F4F3093210520932005809120059091F0
:100A600021058115944008F498CE80E094E090939D
:100A700021058093200591CEC0922B05D0922C05A4
:100A8000E0922D05F0922E05C0912F05D0913005F2
:100A90001091310580911F05813079F580912205F3
:100AA00081117DC020E030E040E05FE3C701B60186
:100AB0000E94D80687FFB2C0D0938B00C0938A00F3
:100AC000612F8BE00E94CE0061E083E00E94FC0079
:100AD000C0EAD0E0E1EBF0E08491833009F484C017
:100AE00008F067C0813009F475C0823009F477C01E
:100AF000C038D1050CF05BC029C0823009F04FC06E
:100B0000BE0190E080E00E94850720E030E84FEFD2
:100B100053E40E94DD066B017C01D0938B00C093EF
:100B20008A00612F8BE00E94CE0020E030E040E29E
:100B300053E4C701B6010E943C080E944F07EB0135
:100B400061E083E00E94FC00209769F560E083E0AB
:100B50000E94CE0080912305109223058823B9F0CE
:100B60008FE1E82E81E0F82ED0E0C0E0F70111918E
:100B70007F01CE010E945506181721F0612FCE018A
:100B80000E945D062196C115F4E0DF0779F780E049
:100B900090E0892B09F489CC0E94000085CCC12CFF
:100BA000D12C7601BACFCF3FD10509F093CF61E0C8
:100BB000CECF873019F1883049F1843009F098CFD1
:100BC00080918000806280938000D0938B00C093DE
:100BD0008A00C0CF84B5806884BDC7BDBBCF84B553
:100BE000806284BDC8BDB6CF80918000806880934C
:100BF0008000D0938900C0938800ACCF8091B00072
:100C000080688093B000C093B300A4CF8091B000FF
:100C100080628093B000C093B4009CCFD0938B00CF
:100C2000C0938A00612F8BE00E94CE0061E083E0D8
:100C30000E94FC008BCF10921F051092210510928C
:100C4000200581E0809322051092230580932405DE
:100C5000109225051092260510922705109228055E
:100C60001092290510922A0510922B0510922C053E
:100C700010922D0510922E051092300510922F051E
:100C800010923105E6E0F1E044E150E060E070E010
:100C90004083518362837383148215821682178284
:100CA00080878187128613860895F999FECF92BDB9
:100CB00081BDF89A992780B50895262FF999FECF1E
:100CC0001FBA92BD81BD20BD0FB6F894FA9AF99A69
:100CD0000FBE019608955058BB27AA270E9483068D
:100CE0000C94FD070E94EF0738F00E94F60720F0F1
:100CF00039F49F3F19F426F40C94EC070EF4E095B8
:100D0000E7FB0C94E607E92F0E940E0858F3BA1788
:100D1000620773078407950720F079F4A6F50C9411
:100D200030080EF4E0950B2EBA2FA02D0B01B9015F
:100D300090010C01CA01A0011124FF27591B99F051
:100D4000593F50F4503E68F11A16F040A22F232F5D
:100D5000342F4427585FF3CF469537952795A795AD
:100D6000F0405395C9F77EF41F16BA0B620B730B54
:100D7000840BBAF09150A1F0FF0FBB1F661F771FC5
:100D8000881FC2F70EC0BA0F621F731F841F48F47A
:100D9000879577956795B795F7959E3F08F0B0CF03
:100DA0009395880F08F09927EE0F979587950895EA
:100DB0000E94C20708F481E008950E94F1060C9495
:100DC000FD070E94F60758F00E94EF0740F029F453
:100DD0005F3F29F00C94E60751110C9431080C94F4
:100DE000EC070E940E0868F39923B1F3552391F3A1
:100DF000951B550BBB27AA2762177307840738F08A
:100E00009F5F5F4F220F331F441FAA1FA9F335D0E6
:100E10000E2E3AF0E0E832D091505040E695001C9A
:100E2000CAF72BD0FE2F29D0660F771F881FBB1F54
:100E3000261737074807AB07B0E809F0BB0B802D32
:100E4000BF01FF2793585F4F3AF09E3F510578F05E
:100E50000C94E6070C9431085F3FE4F3983ED4F31A
:100E6000869577956795B795F7959F5FC9F7880F32
:100E7000911D9695879597F90895E1E0660F771F84
:100E8000881FBB1F621773078407BA0720F0621B15
:100E9000730B840BBA0BEE1F88F7E09508950E9440
:100EA00056076894B1110C94310808950E941608F1
:100EB00088F09F5798F0B92F9927B751B0F0E1F01B
:100EC000660F771F881F991F1AF0BA95C9F714C0CB
:100ED000B13091F00E943008B1E008950C943008D0
:100EE000672F782F8827B85F39F0B93FCCF3869504
:100EF00077956795B395D9F73EF490958095709561
:100F000061957F4F8F4F9F4F0895E89409C097FBDD
:100F10003EF490958095709561957F4F8F4F9F4FD0
:100F20009923A9F0F92F96E9BB279395F695879514
:100F300077956795B795F111F8CFFAF4BB0F11F4D7
:100F400060FF1BC06F5F7F4F8F4F9F4F16C088237E
:100F500011F096E911C0772321F09EE8872F762FB4
:100F600005C0662371F096E8862F70E060E02AF0F5
:100F70009A95660F771F881FDAF7880F96958795E1
:100F800097F90895990F0008550FAA0BE0E8FEEFB6
:100F900016161706E807F907C0F012161306E4073D
:100FA000F50798F0621B730B840B950B39F40A2636
:100FB00061F0232B242B252B21F408950A2609F414
:100FC000A140A6958FEF811D811D089597F99F6718
:100FD00080E870E060E008959FEF80EC08950024C1
:100FE0000A941616170618060906089500240A948E
:100FF00012161306140605060895092E0394000C14
:1010000011F4882352F0BB0F40F4BF2B11F460FFA2
:1010100004C06F5F7F4F8F4F9F4F089557FD9058CB
:10102000440F551F59F05F3F71F04795880F97FBAC
:10103000991F61F09F3F79F0879508951216130666
:101040001406551FF2CF4695F1DF08C01616170695
:101050001806991FF1CF86957105610508940895CA
:10106000E894BB2766277727CB0197F908950E945C
:10107000C20708F48FEF08950E944F080C94FD07F3
:101080000E94EF0738F00E94F60720F0952311F038
:101090000C94E6070C94EC0711240C9431080E9480
:1010A0000E0870F3959FC1F3950F50E0551F629F96
:1010B000F001729FBB27F00DB11D639FAA27F00DB1
:1010C000B11DAA1F649F6627B00DA11D661F829FD8
:1010D0002227B00DA11D621F739FB00DA11D621FBD
:1010E000839FA00D611D221F749F3327A00D611DDA
:1010F000231F849F600D211D822F762F6A2F1124BC
:101100009F5750409AF0F1F088234AF0EE0FFF1FEE
:10111000BB1F661F771F881F91505040A9F79E3F45
:10112000510580F00C94E6070C9431085F3FE4F31E
:10113000983ED4F3869577956795B795F795E7959B
:101140009F5FC1F7FE2B880F911D9695879597F9A4
:101150000895EE0FFF1F0590F491E02D0994F89487
:02116000FFCFBF
:00000001FF
