:100000000C9462000C948A000C948A000C948A0070
:100010000C948A000C948A000C948A000C948A0038
:100020000C948A000C948A000C948A000C948A0028
:100030000C948A000C948A000C948A000C948A0018
:100040000C947F010C948A000C948A000C948A0012
:100050000C948A000C948A000C948A000C948A00F8
:100060000C948A000C948A000000000024002700F1
:100070002A0000000000250028002B0000000000DE
:1000800023002600290004040404040404040202DA
:100090000202020203030303030301020408102007
:1000A0004080010204081020010204081020000012
:1000B0000008000201000003040700000000000027
:1000C0000000240611241FBECFEFD8E0DEBFCDBF55
:1000D00011E0A0E0B1E0EEEBF1E102C005900D927D
:1000E000A030B107D9F725E0A0E0B1E001C01D9232
:1000F000A733B207E1F710E0C2E6D0E004C02197D1
:10010000FE010E94D708C136D107C9F70E94C90174
:100110000C94DD080C940000833081F028F48130C9
:1001200099F08230A9F008958730A9F08830C9F09D
:100130008430B1F4809180008F7D03C08091800075
:100140008F7780938000089584B58F7784BD08955C
:1001500084B58F7DFBCF8091B0008F778093B00006
:1001600008958091B0008F7DF9CFCF93DF93282F32
:1001700030E0F901E255FF4F8491F901E656FF4F57
:10018000D491F901EA57FF4FC491CC23A1F081111A
:100190000E948C00EC2FF0E0EE0FFF1FE458FF4FA1
:1001A000A591B491EC91ED2381E090E009F480E019
:1001B000DF91CF91089580E090E0FACF1F93CF9325
:1001C000DF93282F30E0F901E255FF4F8491F901C8
:1001D000E656FF4FD491F901EA57FF4FC491CC2363
:1001E000A9F0162F81110E948C00EC2FF0E0EE0F89
:1001F000FF1FEE58FF4FA591B4918FB7F894EC9183
:10020000111108C0D095DE23DC938FBFDF91CF9111
:100210001F910895DE2BF8CFCF93DF9390E0FC0180
:10022000E656FF4F24918A579F4FFC018491882303
:10023000C9F090E0880F991FFC01E859FF4FA59184
:10024000B491FC01EE58FF4FC591D49161110DC0DE
:100250009FB7F8948C91209582238C9388812823D2
:1002600028839FBFDF91CF910895623051F49FB7EB
:10027000F8943C91822F809583238C93E8812E2BD8
:10028000EFCF8FB7F894EC912E2B2C938FBFEACF42
:100290008E50806480937C0080917A00806480938B
:1002A0007A0080917A0086FDFCCF80917800909151
:1002B000790008953FB7F894809133059091340503
:1002C000A0913505B091360526B5A89B05C02F3FF6
:1002D00019F00196A11DB11D3FBFBA2FA92F982F6C
:1002E0008827BC01CD01620F711D811D911D42E067
:1002F000660F771F881F991F4A95D1F708951F929F
:100300000F920FB60F9211242F933F938F939F93C9
:10031000AF93BF9380912F0590913005A091310547
:10032000B091320530912E0523E0230F2D3758F57B
:100330000196A11DB11D20932E0580932F0590934A
:100340003005A0933105B09332058091330590912B
:100350003405A0913505B09136050196A11DB11D5A
:100360008093330590933405A0933505B0933605FB
:10037000BF91AF919F918F913F912F910F900FBEA1
:100380000F901F90189526E8230F0296A11DB11D0E
:10039000D2CFCF93DF93CDB7DEB764970FB6F89483
:1003A000DEBF0FBECDBF789484B5826084BD84B5B6
:1003B000816084BD85B5826085BD85B5816085BD60
:1003C00080916E00816080936E0010928100809118
:1003D00081008260809381008091810081608093A0
:1003E0008100809180008160809380008091B100C5
:1003F00084608093B1008091B00081608093B000F0
:1004000080917A00846080937A0080917A00826083
:1004100080937A0080917A00816080937A00809145
:100420007A00806880937A001092C10060E081E1D8
:100430000E940C0160E089E00E940C0161E08AE00A
:100440000E940C0161E08BE00E940C0161E083E0FE
:100450000E940C0162E084E00E940C0160E08AE0EE
:100460000E94DE0060E08BE00E94DE0090E080E011
:100470000E948A0691E0813009F090E0909300019B
:10048000909328058EE00E944801BC01990F880BCB
:10049000990B0E94B50720E030EC4FE754E40E942E
:1004A00012076B017C0120E030E0A9010E940D07DA
:1004B00087FDBFC020E030E040E85FE3C701B60140
:1004C0000E946508181634F4C12CD12C70E8E72E70
:1004D0007FE3F72E20E030EC4FE754E4C701B6018C
:1004E0000E946A0860931705709318058093190598
:1004F00090931A0560930F05709310058093110572
:10050000909312058FE00E944801BC01990F880B5F
:10051000990B0E94B50720E030EC4FE754E40E94AD
:1005200012076B017C0120E030E0A9010E940D0759
:1005300087FD83C020E030E040E85FE3C701B601FB
:100540000E946508181634F4C12CD12C60E8E62E00
:100550006FE3F62E20E030EC4FE754E4C701B6011C
:100560000E946A0860931B0570931C0580931D050B
:1005700090931E05609313057093140580931505E1
:100580009093160580E10E944801853521E092078D
:100590000CF457C08A3A92400CF055C081E0809329
:1005A00027050E945A0160932A0570932B058093BA
:1005B0002C0590932D050E945A014B015C018091FE
:1005C0002A0590912B05A0912C05B0912D05A50130
:1005D0009401281B390B4A0B5B0BCA01B9010E941D
:1005E000B3072DEB37E346E855E30E946A086B0139
:1005F0007C0180922A0590922B05A0922C05B09246
:100600002D053091290539833323F9F0313009F470
:100610000CC280E10E944801853541E094070CF44A
:1006200041C28A3A92400CF03FC281E08093270594
:1006300044C0C12CD12C76014DCFC12CD12C7601D8
:1006400089CF80E0ACCF82E0AACF8EE00E94480143
:10065000BC01990F880B990B0E94B50720E030EC84
:100660004FE754E40E9412074B015C0120E030E0A8
:10067000A9010E940D0787FDD4C120E030E040E8C9
:100680005FE3C501B4010E946508181634F4812C9B
:10069000912C50E8A52E5FE3B52E20E030EC4FE71B
:1006A00054E4C501B4010E946A0860931705709371
:1006B00018058093190590931A0589818F5F8983A6
:1006C000833008F0F3C1809329058FB7F8948090A8
:1006D0002F0590903005A0903105B09032058FBF66
:1006E00084E00E94B50010920B0110920C019091D1
:1006F0000A01891751F080930A01809205019092B6
:100700000601A0920701B092080180910501909125
:100710000601A0910701B0910801881A990AAA0A56
:10072000BB0A8091010190910201A0910301B09157
:10073000040188159905AA05BB05B0F4909109013B
:1007400080910A01981781F080930901911103C0EB
:1007500021E0813009F020E020930B01913009F471
:10076000811190E090930C0180910C01882361F03D
:100770006091000181E06827609300016093280583
:1007800090E080E00E94920681E10E94B5009A8389
:10079000898389E00E94B500A981BA81119719F473
:1007A00021E020931F05019719F481E08093200533
:1007B000209123053091240540912505509126056F
:1007C000C701B6010E94A1066B017C0120E030E068
:1007D00040E85EE30E94650818160CF46AC1C092F6
:1007E0002305D0922405E0922505F0922605C090BD
:1007F0002305D0902405E0902505F0902605B091C2
:100800002805BB87E0911705ED87F0911805FE8755
:10081000209119052F8730911A05388B90910D057D
:1008200080910E05A090270520E0998B8A8B122FCE
:100830002EE034E74AED59E3C701B6010E9465088E
:1008400087FD64C12EE034E74AED59E3C701B601E4
:100850000E94A0066B017C0189899A89877099277B
:1008600041E001C0440F8A95EAF74C878FE195E09B
:100870009A8389830FE015E089899A8933E09695F8
:1008800087953A95E1F7DC01A35FBE4F1D01912CDE
:10089000812CBB85BB2321F0E1E08E1609F41AC13F
:1008A000F801B085A185F285FB8BF801F385FC8BFF
:1008B000B82CF8014080518062807380A3019201BE
:1008C0006B2F7A2F8B899C890E94A00620E030E054
:1008D00040E85DE30E946A08A30192010E94A1061C
:1008E000D8016D937D938D939C931397F101208193
:1008F000FC852F2331E009F430E0A981BA811296FA
:100900003C939B01AC010E94A10620E030E040E056
:100910005EE3AA2059F0B1E020E030E040E05FE380
:10092000AB1621F020E030E040E85FE30E946A0867
:1009300020E030E040E85FE30E94A10620E030E0E4
:1009400040E05FE30E94A1062B013C0120E030E083
:1009500040E85FE30E940D0761E070E0181684F440
:1009600020E030EE4FEF54E4C301B2010E9465086D
:100970006FEF77E087FF04C0C301B2010E948407D4
:10098000E989FA896E0F7F1F6115F0E17F0708F092
:100990007051CB018770992721E030E002C0220F0F
:1009A000331F8A95E2F7C90193E0769567959A958A
:1009B000E1F7A981BA812C91BB2DBB0F222309F449
:1009C00090C0BC831B82EB81FC81E35FFE4FE60F8E
:1009D000F71FBE831D822D813E81235F3E4F620F34
:1009E000731FDB019C91892B8083E981FA8111922D
:1009F000FA83E9830C5F1F4FFEEF3F1A8A94892820
:100A000009F064C049895A894F5F5F4F5A8B498BFF
:100A100021E090E080E011E04115504108F005CF61
:100A200007CF812C912C540138CE8FE00E944801D1
:100A3000BC01990F880B990B0E94B50720E030ECA0
:100A40004FE754E40E9412074B015C0120E030E0C4
:100A5000A9010E940D0787FD21C020E030E040E899
:100A60005FE3C501B4010E946508181634F4812CB7
:100A7000912C40E8A42E4FE3B42E20E030EC4FE759
:100A800054E4C501B4010E946A0860931B05709389
:100A90001C0580931D0590931E050FCE812C912C73
:100AA0005401EBCF80E0C2CD82E0C0CD1092290589
:100AB0000CCE80E090E0A0E8BEE380932305909305
:100AC0002405A0932505B093260591CE8824839410
:100AD000912CDFCEBD85AE852F852B8B38893C8B45
:100AE000E7CEB8871F82EF81F885E35FFE4FE60F00
:100AF000F71FBA87198629853A85235F3E4F620F13
:100B0000731F8095DB019C9189236ECFE989FA8957
:100B1000F0930E05E0930D05C0922305D0922405B5
:100B2000E0922505F0922605112331F1609121050F
:100B30008AE00E94DE00609122058BE00E94DE00C8
:100B400080912105811120C080912205811121C051
:100B500080910001882311F124E130E03A83298358
:100B600061E083E00E940C01A981BA81AB2BC9F43A
:100B700060E083E00E94DE0080E090E0892B09F4D1
:100B80001ACD0E94000017CD4FEF50E05A834983E1
:100B9000E7CF8FEF90E09A838983E2CF1A821982A0
:100BA000DFCFE981FA81EF3FF10511F461E0E1CF98
:100BB000E1EBF0E0E491E33049F150F4E130D1F0C1
:100BC000E230F1F0E981FA81E038F1057CF7D0CF2D
:100BD000E73041F1E83079F1E430A1F7809180000D
:100BE00080628093800089819A8190938B008093AA
:100BF0008A00C2CF84B5806884BDF981F7BDBCCFBF
:100C000084B5806284BD298128BDB6CF80918000E3
:100C100080688093800049815A8150938900409375
:100C20008800AACF8091B00080688093B00099813D
:100C30009093B300A1CF8091B00080628093B00008
:100C4000A981A093B40098CFEDE0F1E0119283E088
:100C5000ED30F807D9F710920F0510921005109299
:100C60001105109212051092170510921805109296
:100C7000190510921A0510921F0510922105EDE03A
:100C8000F3E08DE095E011928E179F07E1F7109247
:100C90001305109214051092150510921605109266
:100CA0001B0510921C0510921D0510921E05109236
:100CB00020051092220510920E0510920D0510923B
:100CC000230510922405109225051092260582E036
:100CD000809327051092280582E390E0A0E0B0E021
:100CE0008093010190930201A0930301B09304014A
:100CF000109205011092060110920701109208014E
:100D000081E08093090180930A0110920B011092F7
:100D10000C010895F999FECF92BD81BDF89A9927EB
:100D200080B50895262FF999FECF1FBA92BD81BDD7
:100D300020BD0FB6F894FA9AF99A0FBE019608955D
:100D40005058BB27AA270E94B8060C942B080E9473
:100D50001D0838F00E94240820F039F49F3F19F450
:100D600026F40C941A080EF4E095E7FB0C94140892
:100D7000E92F0E943C0858F3BA17620773078407EB
:100D8000950720F079F4A6F50C945E080EF4E09532
:100D90000B2EBA2FA02D0B01B90190010C01CA0135
:100DA000A0011124FF27591B99F0593F50F4503EE0
:100DB00068F11A16F040A22F232F342F4427585FD2
:100DC000F3CF469537952795A795F0405395C9F7EA
:100DD0007EF41F16BA0B620B730B840BBAF09150A2
:100DE000A1F0FF0FBB1F661F771F881FC2F70EC041
:100DF000BA0F621F731F841F48F487957795679514
:100E0000B795F7959E3F08F0B0CF9395880F08F0FF
:100E10009927EE0F9795879508950E94F00708F49B
:100E200081E008950E9426070C942B080E94240854
:100E300058F00E941D0840F029F45F3F29F00C94FF
:100E4000140851110C945F080C941A080E943C0875
:100E500068F39923B1F3552391F3951B550BBB27E9
:100E6000AA2762177307840738F09F5F5F4F220F2E
:100E7000331F441FAA1FA9F335D00E2E3AF0E0E825
:100E800032D091505040E695001CCAF72BD0FE2F6F
:100E900029D0660F771F881FBB1F26173707480703
:100EA000AB07B0E809F0BB0B802DBF01FF279358BB
:100EB0005F4F3AF09E3F510578F00C9414080C9463
:100EC0005F085F3FE4F3983ED4F386957795679586
:100ED000B795F7959F5FC9F7880F911D96958795F0
:100EE00097F90895E1E0660F771F881FBB1F62170F
:100EF00073078407BA0720F0621B730B840BBA0BCD
:100F0000EE1F88F7E09508950E94440888F09F57E7
:100F100098F0B92F9927B751B0F0E1F0660F771F1D
:100F2000881F991F1AF0BA95C9F714C0B13091F013
:100F30000E945E08B1E008950C945E08672F782F38
:100F40008827B85F39F0B93FCCF3869577956795D8
:100F5000B395D9F73EF490958095709561957F4F44
:100F60008F4F9F4F0895E89409C097FB3EF49095EA
:100F70008095709561957F4F8F4F9F4F9923A9F072
:100F8000F92F96E9BB279395F69587957795679501
:100F9000B795F111F8CFFAF4BB0F11F460FF1BC045
:100FA0006F5F7F4F8F4F9F4F16C0882311F096E9D8
:100FB00011C0772321F09EE8872F762F05C0662386
:100FC00071F096E8862F70E060E02AF09A95660F3F
:100FD000771F881FDAF7880F9695879597F90895F8
:100FE000990F0008550FAA0BE0E8FEEF161617063A
:100FF000E807F907C0F012161306E407F50798F0A2
:10100000621B730B840B950B39F40A2661F0232BBA
:10101000242B252B21F408950A2609F4A140A69536
:101020008FEF811D811D089597F99F6780E870E01B
:1010300060E008959FEF80EC089500240A9416164E
:10104000170618060906089500240A9412161306B6
:10105000140605060895092E0394000C11F4882344
:1010600052F0BB0F40F4BF2B11F460FF04C06F5F60
:101070007F4F8F4F9F4F089557FD9058440F551F36
:1010800059F05F3F71F04795880F97FB991F61F00A
:101090009F3F79F087950895121613061406551F81
:1010A000F2CF4695F1DF08C0161617061806991FED
:1010B000F1CF86957105610508940895E894BB27E2
:1010C00066277727CB0197F908950E94F00708F467
:1010D0008FEF08950E947D080C942B080E941D0834
:1010E00038F00E94240820F0952311F00C94140885
:1010F0000C941A0811240C945F080E943C0870F3A9
:10110000959FC1F3950F50E0551F629FF001729FAC
:10111000BB27F00DB11D639FAA27F00DB11DAA1FBB
:10112000649F6627B00DA11D661F829F2227B00D08
:10113000A11D621F739FB00DA11D621F839FA00D93
:10114000611D221F749F3327A00D611D231F849FE3
:10115000600D211D822F762F6A2F11249F5750403A
:101160009AF0F1F088234AF0EE0FFF1FBB1F661FB5
:10117000771F881F91505040A9F79E3F510580F07E
:101180000C9414080C945F085F3FE4F3983ED4F38A
:10119000869577956795B795F795E7959F5FC1F722
:1011A000FE2B880F911D9695879597F90895EE0F60
:0E11B000FF1F0590F491E02D0994F894FFCFF5
:00000001FF
