:100000000C945C000C9479000C9479000C947900A9
:100010000C9479000C9479000C9479000C9479007C
:100020000C9479000C9479000C9479000C9479006C
:100030000C9479000C9479000C9479000C9479005C
:100040000C9485020C9479000C9479000C9479003E
:100050000C9479000C9479000C9479000C9479003C
:100060000C9479000C947900000000080002010053
:100070000003040700000000000000000000000072
:10008000250028002B0000000000240027002A0083
:10009000040404040404040402020202020203032E
:1000A0000303030301020408102040800102040836
:1000B000102001020408102011241FBECFEFD8E049
:1000C000DEBFCDBF11E0A0E0B1E0EEEFFDE002C089
:1000D00005900D92AC33B107D9F721E0ACE3B1E064
:1000E00001C01D92AA35B207E1F70E94CF020C941D
:1000F000FD060C94000020914E0130914F01AC019F
:10010000421B530B2817390718F0A901481B590B3C
:1001100040325105E0F090934F0180934E0184E00E
:100120008093540120914E0130914F01ACE3B0E037
:100130000E94AB04DC01CB012AE0B695A795979508
:1001400087952A95D1F78C3308F08BE30895409179
:10015000540160915001709151014423A1F041502C
:1001600040935401280F391F3695279530934F013E
:1001700020934E01709353016093520130935101CB
:1001800020935001CFCFE0915201F09153016817B5
:10019000790720F1E617F70748F5AC018E179F079E
:1001A00008F4AF0170935301609352019093510191
:1001B00080935001A7E0B0E00E94AB04640F751F6C
:1001C000811D911D33E096958795779567953A95B2
:1001D000D1F770934F0160934E01A4CFAC01E817A3
:1001E000F90700F7AF01E617F707E0F6AB01DACF42
:1001F00090E0FC01EC55FF4F249180579F4FFC018C
:100200008491882399F090E0880F991FFC01EA57A8
:10021000FF4FA591B491FC01E458FF4F8591949153
:100220008FB7F894EC91E22BEC938FBF089590E098
:10023000FC01E859FF4F2491FC01EC55FF4F34912C
:10024000FC01E057FF4FE491EE23C9F0222339F07F
:10025000233001F1A8F4213019F1223029F1F0E026
:10026000EE0FFF1FE458FF4FA591B4918FB7F8949C
:10027000EC91611126C030953E233C938FBF0895C9
:100280002730A9F02830C9F0243049F78091800048
:100290008F7D03C0809180008F7780938000DFCFB7
:1002A00084B58F7784BDDBCF84B58F7DFBCF809104
:1002B000B0008F778093B000D2CF8091B0008F7D57
:1002C000F9CF3E2BDACF8E50806480937C008091F2
:1002D0007A00806480937A0080917A0086FDFCCF5A
:1002E000809178009091790008953FB7F8948091BB
:1002F0004A0190914B01A0914C01B0914D0126B55E
:10030000A89B05C02F3F19F00196A11DB11D3FBF4D
:10031000BA2FA92F982F8827BC01CD01620F711D1C
:10032000811D911D42E0660F771F881F991F4A9516
:10033000D1F708958F929F92AF92BF92CF92DF92A2
:10034000EF92FF92CF9380E10E946301BC01990F6D
:10035000880B990B0E94CF0520E030EC4FE754E466
:100360000E942C056B017C018FE00E946301BC019F
:10037000990F880B990B0E94CF0520E030EC4FE7D6
:1003800054E40E942C054B015C012BE83AE24AEA56
:100390005EE30E942705C0E0181664F42BE93AE6F4
:1003A0004AE25FE3C501B4010E942705C2E01816C6
:1003B0000CF0C1E020E030E0A901C701B6010E94C5
:1003C000270587FD26C020E030E040E85FE3C70155
:1003D000B6010E947F06181604F120E030E040E2EA
:1003E00051E4C701B6010E9484060E949E058AE07E
:1003F000C89F802D11246A3008F069E0860FCF91E4
:10040000FF90EF90DF90CF90BF90AF909F908F9034
:100410000895C12CD12C7601E0CFC12CD12C80E8DD
:10042000E82E8FE3F82ED9CFCF93DF9381E10E949E
:100430006301EC018EE00E946301092E000CAA0BFF
:10044000BB0BAE01DD0F660B770B840F951FA61F4C
:10045000B71FB7FD09C0811524E09207A105B105BA
:1004600034F4DF91CF91089590E080E0FACF8FEFE0
:1004700093E0F7CF682F70E090E080E00E94CD0518
:100480002BEA3AEA4AEA5DE30E9484062DEC3CEC52
:100490004CEC53E40E94840620E030E040E05FE34F
:1004A0000E94BB040E949E05611580E1780710F050
:1004B0006FEF7FE070938B0060938A000895E62FC2
:1004C0008C3308F08BE32CE0622F0E94F106829FB0
:1004D000802D1124EE3108F0EDE1F0E0EE0FFF1F6A
:1004E000E050FF4F4081518161E070E09B01092E97
:1004F00002C0220F331F0A94E2F724233523232B53
:1005000011F49150F3CF890F08951F920F920FB6F7
:100510000F9211242F933F938F939F93AF93BF9389
:100520008091460190914701A0914801B091490105
:100530003091450123E0230F2D3758F50196A11D79
:10054000B11D209345018093460190934701A093EC
:100550004801B093490180914A0190914B01A091CB
:100560004C01B0914D010196A11DB11D80934A012E
:1005700090934B01A0934C01B0934D01BF91AF916B
:100580009F918F913F912F910F900FBE0F901F90D1
:10059000189526E8230F0296A11DB11DD2CF78949D
:1005A00084B5826084BD84B5816084BD85B5826078
:1005B00085BD85B5816085BD80916E008160809329
:1005C0006E00109281008091810082608093810092
:1005D00080918100816080938100809180008160A2
:1005E000809380008091B10084608093B1008091FD
:1005F000B00081608093B00080917A008460809325
:100600007A0080917A00826080937A0080917A00EB
:10061000816080937A0080917A00806880937A006C
:100620001092C1008AE00E94F8008BE00E94F8005E
:1006300083E00E94F80083E28093B00081E0809321
:10064000B10082E88093800089E1809381002FEFE0
:1006500030E0309387002093860092E290938000F0
:10066000809381008FEF9FE09093870080938600B6
:1006700010928B0010928A0060E08BE00E941701BC
:1006800010924F0110924E011092510110925001A0
:100690001092530110925201109254011092550180
:1006A0001092560110925701109258011092590160
:1006B0000E94140290934F0180934E019093510138
:1006C00080935001909353018093520110925401F2
:1006D0000E949A01C82F0E9414020E947B006C2F76
:1006E0000E945F02809355010E943A020E947501A8
:1006F00060934101709342018093430190934401C0
:100700009BE6292E90E0392EC0E0D0E00E947501D2
:100710002B013C018FB7F894C0904601D09047015F
:10072000E0904801F09049018FBF80914101909184
:100730004201A0914301B0914401A3019201281B01
:10074000390B4A0B5B0BCA01B9010E94CD052DEB99
:1007500037E346E855E30E9484064B015C01409272
:1007600041015092420160924301709244010E9403
:100770009A01782E0E9414028C01A50194016091C7
:1007800056017091570180915801909159010E9432
:10079000BB04609356017093570180935801909366
:1007A000590184E0682E512C809056019090570199
:1007B000A0905801B090590120E030E040E85BE3A0
:1007C000C501B4010E947F0687FD21C020E030E012
:1007D00040E85BE3C501B4010E94BA04609356018E
:1007E000709357018093580190935901C8010E945A
:1007F0007B00672D0E945F0290915501891721F0BF
:1008000080935501552453946A946110CDCF20E014
:1008100030E040E85CE360915601709157018091AF
:100820005801909159010E947F06181644F41092C5
:1008300056011092570110925801109259015520FB
:10084000C1F0809155010E943A0261E08BE00E9464
:100850001701D701C6010A96A11DB11D80933D0164
:1008600090933E01A0933F01B093400131E030935B
:100870003C0180913C018823A1F080913D01909141
:100880003E01A0913F01B0914001C81AD90AEA0A7D
:10089000FB0AF7FC06C060E08BE00E941701109293
:1008A0003C0180913C0110E000E0882311F008EC4D
:1008B00010E083E00E94F8000115110529F460E0C2
:1008C00083E00E94170122C0F1018491833049F135
:1008D00048F48130B9F08230F9F0003811057CF32A
:1008E00061E0EECF873039F1883069F18430A9F7C3
:1008F0008091800080628093800010938B00009331
:100900008A0004C084B5806884BD07BD209709F4BF
:10091000FDCE0E940000FACE84B5806284BD08BD81
:10092000F5CF8091800080688093800010938900CB
:1009300000938800EBCF8091B00080688093B00076
:100940000093B300E3CF8091B00080628093B00049
:100950000093B400DBCFA29FB001B39FC001A39F5F
:10096000700D811D1124911DB29F700D811D1124E8
:10097000911D08955058BB27AA270E94D2040C94B9
:1009800045060E94370638F00E943E0620F039F4F2
:100990009F3F19F426F40C9434060EF4E095E7FB1F
:1009A0000C942E06E92F0E94560658F3BA176207D8
:1009B00073078407950720F079F4A6F50C94780660
:1009C0000EF4E0950B2EBA2FA02D0B01B90190016A
:1009D0000C01CA01A0011124FF27591B99F0593FAE
:1009E00050F4503E68F11A16F040A22F232F342FF6
:1009F0004427585FF3CF469537952795A795F04044
:100A00005395C9F77EF41F16BA0B620B730B840B58
:100A1000BAF09150A1F0FF0FBB1F661F771F881F10
:100A2000C2F70EC0BA0F621F731F841F48F4879568
:100A300077956795B795F7959E3F08F0B0CF93955A
:100A4000880F08F09927EE0F9795879508950E94D3
:100A50000A0608F481E008950E9440050C944506BA
:100A60000E943E0658F00E94370640F029F45F3F8E
:100A700029F00C942E0651110C9479060C9434062E
:100A80000E94560668F39923B1F3552391F3951B01
:100A9000550BBB27AA2762177307840738F09F5F9F
:100AA0005F4F220F331F441FAA1FA9F335D00E2E0C
:100AB0003AF0E0E832D091505040E695001CCAF779
:100AC0002BD0FE2F29D0660F771F881FBB1F26173C
:100AD00037074807AB07B0E809F0BB0B802DBF0113
:100AE000FF2793585F4F3AF09E3F510578F00C94E2
:100AF0002E060C9479065F3FE4F3983ED4F3869576
:100B000077956795B795F7959F5FC9F7880F911D02
:100B10009695879597F90895E1E0660F771F881FEE
:100B2000BB1F621773078407BA0720F0621B730BA1
:100B3000840BBA0BEE1F88F7E09508950E945E06BD
:100B400088F09F5798F0B92F9927B751B0F0E1F08E
:100B5000660F771F881F991F1AF0BA95C9F714C03E
:100B6000B13091F00E947806B1E008950C947806B7
:100B7000672F782F8827B85F39F0B93FCCF3869577
:100B800077956795B395D9F73EF4909580957095D4
:100B900061957F4F8F4F9F4F0895E89409C097FB51
:100BA0003EF490958095709561957F4F8F4F9F4F44
:100BB0009923A9F0F92F96E9BB279395F695879588
:100BC00077956795B795F111F8CFFAF4BB0F11F44B
:100BD00060FF1BC06F5F7F4F8F4F9F4F16C08823F2
:100BE00011F096E911C0772321F09EE8872F762F28
:100BF00005C0662371F096E8862F70E060E02AF069
:100C00009A95660F771F881FDAF7880F9695879554
:100C100097F90895990F0008550FAA0BE0E8FEEF29
:100C200016161706E807F907C0F012161306E407B0
:100C3000F50798F0621B730B840B950B39F40A26A9
:100C400061F0232B242B252B21F408950A2609F487
:100C5000A140A6958FEF811D811D089597F99F678B
:100C600080E870E060E008959FEF80EC0895002434
:100C70000A941616170618060906089500240A9401
:100C800012161306140605060895092E0394000C87
:100C900011F4882352F0BB0F40F4BF2B11F460FF16
:100CA00004C06F5F7F4F8F4F9F4F089557FD90583F
:100CB000440F551F59F05F3F71F04795880F97FB20
:100CC000991F61F09F3F79F08795089512161306DA
:100CD0001406551FF2CF4695F1DF08C01616170609
:100CE0001806991FF1CF869571056105089408953E
:100CF000E894BB2766277727CB0197F908950E94D0
:100D00000A0608F48FEF08950E9497060C94450692
:100D10000E94370638F00E943E0620F0952311F01D
:100D20000C942E060C94340611240C9479060E941F
:100D3000560670F3959FC1F3950F50E0551F629FC3
:100D4000F001729FBB27F00DB11D639FAA27F00D24
:100D5000B11DAA1F649F6627B00DA11D661F829F4B
:100D60002227B00DA11D621F739FB00DA11D621F30
:100D7000839FA00D611D221F749F3327A00D611D4D
:100D8000231F849F600D211D822F762F6A2F11242F
:100D90009F5750409AF0F1F088234AF0EE0FFF1F62
:100DA000BB1F661F771F881F91505040A9F79E3FB9
:100DB000510580F00C942E060C9479065F3FE4F305
:100DC000983ED4F3869577956795B795F795E7950F
:100DD0009F5FC1F7FE2B880F911D9695879597F918
:100DE0000895991B79E004C0991F961708F0961B87
:0E0DF000881F7A95C9F780950895F894FFCF73
:100DFE00B50AAD09AD0AAD06AB05D50AB506AD050A
:100E0E006B05FF0FE9049502A904A3015505CD0555
:100E1E00B90573096D0B99090100810091008900D4
:0C0E2E0091028902910491088904490294
:00000001FF
