:100000000C9462000C948A000C948A000C948A0070
:100010000C948A000C948A000C948A000C948A0038
:100020000C948A000C948A000C948A000C948A0028
:100030000C948A000C948A000C948A000C948A0018
:100040000C94FF000C948A000C948A000C948A0093
:100050000C948A000C948A000C948A000C948A00F8
:100060000C948A000C948A000000000023002600F3
:10007000290000000008000201000003040700003E
:1000800000000000000000000000250028002B00F8
:1000900000000000240027002A00040404040404D3
:1000A0000404020202020202030303030303010227
:1000B00004081020408001020408102001020408F6
:1000C00010209D0611241FBECFEFD8E0DEBFCDBFAC
:1000D00011E0A0E0B1E0E4EDF2E102C005900D9284
:1000E000AA31B107D9F721E0AAE1B1E001C01D9220
:1000F000A733B207E1F710E0C2E6D0E004C02197D1
:10010000FE010E946209C136D107C9F70E94490168
:100110000C9468090C940000CF93DF9390E0FC01ED
:10012000E255FF4F249186569F4FFC01849188230E
:10013000C9F090E0880F991FFC01E057FF4FA5918F
:10014000B491FC01EA57FF4FC591D49161110DC0E4
:100150009FB7F8948C91209582238C9388812823D3
:1001600028839FBFDF91CF910895623051F49FB7EC
:10017000F8943C91822F809583238C93E8812E2BD9
:10018000EFCF8FB7F894EC912E2B2C938FBFEACF43
:100190008E50806480937C0080917A00806480938C
:1001A0007A0080917A0086FDFCCF80917800909152
:1001B000790008953FB7F89480913301909134010C
:1001C000A0913501B091360126B5A89B05C02F3FFF
:1001D00019F00196A11DB11D3FBFBA2FA92F982F6D
:1001E0008827BC01CD01620F711D811D911D42E068
:1001F000660F771F881F991F4A95D1F708951F92A0
:100200000F920FB60F9211242F933F938F939F93CA
:10021000AF93BF9380912F0190913001A091310154
:10022000B091320130912E0123E0230F2D3758F584
:100230000196A11DB11D20932E0180932F01909353
:100240003001A0933101B09332018091330190913C
:100250003401A0913501B09136010196A11DB11D67
:100260008093330190933401A0933501B09336010C
:10027000BF91AF919F918F913F912F910F900FBEA2
:100280000F901F90189526E8230F0296A11DB11D0F
:10029000D2CFCF93DF93CDB7DEB762970FB6F89486
:1002A000DEBF0FBECDBF789484B5826084BD84B5B7
:1002B000816084BD85B5826085BD85B5816085BD61
:1002C00080916E00816080936E0010928100809119
:1002D00081008260809381008091810081608093A1
:1002E0008100809180008160809380008091B100C6
:1002F00084608093B1008091B00081608093B000F1
:1003000080917A00846080937A0080917A00826084
:1003100080937A0080917A00816080937A00809146
:100320007A00806880937A001092C10062E084E0D5
:100330000E948C0060E081E10E948C0060E082E11C
:100340000E948C0061E08AE00E948C0061E08BE0FA
:100350000E948C0061E083E00E948C00109280007B
:100360001092810081EA8093800089E0809381006F
:1003700010928B0010928A001092B0001092B1007F
:1003800083EA8093B00081E08093B1001092B300C3
:100390001092B40082E28093800089E18093810012
:1003A0008FEF93E0909387008093860080E092E047
:1003B00090938B0080938A001092010110920201A9
:1003C000109203011092040110920501109206018F
:1003D00010920701109208011092090110920A016F
:1003E00010920B0110920C0110920D0110920E014F
:1003F00010920F01109210011092110180E090E014
:10040000A0E0BFE38093120190931301A093140125
:10041000B09315018EED9AE1ABE5B0E08093160143
:1004200090931701A0931801B093190181E10E94E4
:10043000C800DC0121EB39E747E35EE90E94BC0616
:10044000DC01CB010196A11DB11D0097A105B105ED
:1004500021F48EED9AE1ABE5B0E080931601909324
:100460001701A0931801B09319010E94DA0060935C
:100470002A0170932B0180932C0190932D010E94EF
:10048000DA006B017C018FB7F89420912F01309135
:10049000300140913101509132012D833E834F83D1
:1004A00058878FBF80912A0190912B01A0912C0138
:1004B000B0912D01A7019601281B390B4A0B5B0B4C
:1004C000CA01B9010E94E6072DEB37E346E855E380
:1004D0000E94F5086D877E878F87988BC0922A01CE
:1004E000D0922B01E0922C01F0922D0180E10E942C
:1004F000C800BC01990F880B990B0E94E80720E007
:1005000030EC4FE754E40E9445074B015C018FE05B
:100510000E94C800BC01990F880B990B0E94E80744
:1005200020E030EC4FE754E40E9445071B012C010A
:100530008EE00E94C800BC01990F880B990B0E94A5
:10054000E80720E030EC4FE754E40E9445076B01D8
:100550007C0120E030E0A9010E94400787FD8DC1A9
:1005600020E030E040E85FE3C701B6010E94F008F8
:1005700018160CF486C120E030E0A901C201B101D7
:100580000E94400787FD84C120E030E040E85FE33F
:10059000C201B1010E94F00818160CF47DC120E0E0
:1005A00030E0A901C501B4010E94400787FD7BC16D
:1005B00020E030E040E85FE3C501B4010E94F008AC
:1005C00018160CF474C120E030EC4FE754E4C50178
:1005D000B4010E94F5084B015C0120E030E040E0EE
:1005E00054E40E94400787FF6DC1A501940160E0BB
:1005F00070E88FEF93E40E94D30620E030E040E8FB
:100600005EE30E94F5080E9423084B015C0120E094
:1006100030E0A9010E94400787FD50C120E030E092
:100620004EEF52E4C501B4010E94F008181634F4EC
:10063000812C912CBEEFAB2EB2E4BB2E20E030E03B
:1006400040E05CE3C501B4010E94F50869837A8348
:100650008B839C8319861A861B861C8681E10E94E7
:10066000C8003C0182E10E94C8008C01E6E7F0E08E
:100670009491E2EBF0E08491EEE9F0E02491222302
:1006800009F459C1992359F0933009F43DC108F098
:1006900030C1913009F43EC1923009F43FC1E22FDC
:1006A000F0E0EE0FFF1FE859FF4FA591B4919C9128
:1006B000892391E009F490E0892F1092280110928B
:1006C000290190912701891771F0809327012D81CD
:1006D0003E814F815885209322013093230140931E
:1006E0002401509325018091220190912301A09132
:1006F0002401B09125014D815E816F817885481B71
:10070000590B6A0B7B0B80911E0190911F01A091E8
:100710002001B091210184179507A607B707B0F40F
:100720009091260180912701981781F080932601EE
:10073000911103C021E0813009F020E020932801CD
:10074000913009F4811190E0909329018091290161
:100750008823B1F08091000131E08327809300016C
:100760008D819E81AF81B8858A569F4FAF4FBF4F15
:1007700080931A0190931B01A0931C01B0931D015B
:100780002091010130910201409103015091040137
:100790006D857E858F8598890E94D4064B015C010A
:1007A00020E030E040E85BE30E94F00887FFC5C02E
:1007B0008092010190920201A0920301B092040183
:1007C000C0901201D0901301E0901401F090150137
:1007D00020E030EC4FE754E4C701B6010E94F50871
:1007E00020E030E040E05FE30E94D4060E94B707BB
:1007F00070938B0060938A00A701960160E070E01F
:1008000080E89FE30E94D30620E030E04FE753E406
:100810000E94F50820E030E040E05FE30E94D4064B
:100820000E94B7076093B30080911A0190911B0159
:10083000A0911C01B0911D012D813E814F815885F1
:10084000281B390B4A0B5B0BDA01C9016FEFB7FDAF
:100850000AC020E030E040E253E4C701B6010E9444
:10086000F5080E94B7076093B40040E050E0452BC4
:1008700009F405CE0E94000002CEC12CD12C7601D5
:100880007ACEC12CD12C80E8E82E8FE3F82E73CEDF
:10089000212C312C210183CE212C312C00E8402E3B
:1008A0000FE3502E7CCE812C912C54018CCE812CC8
:1008B000912C10E8A12E1FE3B12E85CE812C912C16
:1008C0005401BCCE20E030E040E054E4C501B40166
:1008D0000E94D30628E030E240E85AE30E94F5087F
:1008E00069877A878B879C8719821A821B821C8270
:1008F000B5CE9730B1F09830D1F0943009F0CFCE2A
:10090000909180009F7D03C0909180009F7790938D
:100910008000C5CE94B59F7794BDC1CE94B59F7D20
:10092000FBCF9091B0009F779093B000B8CE90919C
:10093000B0009F7DF9CF80E0C0CE20E030E040E8FD
:100940005BE3C501B4010E94D3064B015C0120E0CA
:1009500030E040E85BE30E94F00818160CF4F0C0A9
:100960008092010190920201A0920301B0920401D1
:1009700080910001811114C0B301770C880B990B91
:100980000E94E80720E030EC4FE754E40E9445075E
:100990009B01AC01C701B6010E94F5086B017C0107
:1009A000B801110F880B990B0E94E80720E030EC8A
:1009B0004FE754E40E944507A70196010E94D40620
:1009C0003B014C01A0900501B0900601C0900701C9
:1009D000D0900801E0900901F0900A0140910B01CC
:1009E000498B50910C015D8797010E9440071816B2
:1009F0000CF4AFC0970149895D85B501C6010E941D
:100A0000F00887FF0BC09501A601B301C4010E9445
:100A1000400787FDB1C07301898A9D86C501D60153
:100A20008093090190930A01A0930B01B0930C01EC
:100A3000C301D4018093050190930601A09307019F
:100A4000B093080120E030E0A901B70189899D85B4
:100A50000E94400787FD94C020E030E040E85FE35B
:100A6000B70189899D850E94F00818160CF48DC085
:100A700020E030E0A90169817A818B819C810E940C
:100A8000F00818160CF0B6C080911101811184C0D5
:100A9000C701A989BD8580930D0190930E01A09394
:100AA0000F01B0931001A1E0A0931101E0900D019E
:100AB000F0900E01B0910F01B98BE0911001ED871C
:100AC000A2019101C201B1010E94D40620E030E0F0
:100AD00040E85FE30E94D3064B015C0120E030E078
:100AE00040E05FE3B70189899D850E94D3069B01A1
:100AF000AC01C501B4010E94F50820E030E040E0FF
:100B00005FE30E94D4066B017C0120E030E0A90184
:100B10000E94400787FD06C120E030E040E85FE327
:100B2000C701B6010E94F00818160CF4FFC0C0926D
:100B30001201D0921301E0921401F092150140CEFF
:100B4000109201011092020110920301109204010F
:100B50000FCF9501A601B301C4010E9440071816EA
:100B60000CF059CF970149895D85B501C6010E94F6
:100B7000F00818160CF052CF7501C98ADD864ECFE9
:100B8000E12CF12C198A1D8673CFE12CF12C80E821
:100B9000898B9FE39D876CCF20910D0130910E01D1
:100BA00040910F015091100169817A818B819C8164
:100BB0000E94F5084B015C0129813A814B815C81DF
:100BC00060E070E080E89FE30E94D30697014989C6
:100BD0005D850E94F5089B01AC01C501B4010E942E
:100BE000D40660930D0170930E0180930F019093D2
:100BF00010015CCFC701A989BD8580930D01909339
:100C00000E01A0930F01B0931001F1E0F0931101D8
:100C100020E030E0A90169857A858B859C850E945A
:100C2000F00818160CF04CCF809116019091170126
:100C3000A0911801B0911901AC01BD012DE0440F44
:100C4000551F661F771F2A95D1F784279527A6275A
:100C5000B727AC01BD0131E176956795579547956A
:100C60003A95D1F784279527A627B727AC01BD0170
:100C7000E5E0440F551F661F771FEA95D1F78427DB
:100C80009527A627B7278093160190931701A09365
:100C90001801B0931901692F7A2F8B2F99270E9481
:100CA000E60720E030E040E054E30E94F50820E051
:100CB00030E040E85FE30E94D30629853A854B8502
:100CC0005C850E94F50820E030E040E05FE30E9490
:100CD000F5089B01AC01B70189899D850E94D40666
:100CE0007B01898B9D8720E030E0A9010E944007AD
:100CF00087FD13C020E030E040E85FE3B701898959
:100D00009D850E94F00818160CF0DACEE12CF12C2B
:100D100020E8298B3FE33D87D3CEE12CF12C198AC3
:100D20001D86CECEC12CD12C760101CFC12CD12C69
:100D300080E8E82E8FE3F82EFACEEEE1F1E082E3D0
:100D400090E0A0E0B0E080839183A283B38314821B
:100D500015821682178281E080878187128613862A
:100D600008950E94C406A59F900DB49F900DA49F66
:100D7000800D911D11240895B7FF0C94B1060E94B7
:100D8000B106821B930B0895A29FB001B39FC001CF
:100D9000A39F700D811D1124911DB29F700D811DA7
:100DA0001124911D08955058BB27AA270E94EB06D5
:100DB0000C949E080E94900838F00E94970820F03A
:100DC00039F49F3F19F426F40C948D080EF4E09545
:100DD000E7FB0C945E08E92F0E94AF0858F3BA179E
:100DE000620773078407950720F079F4A6F50C9441
:100DF000E9080EF4E0950B2EBA2FA02D0B01B901D6
:100E000090010C01CA01A0011124FF27591B99F080
:100E1000593F50F4503E68F11A16F040A22F232F8C
:100E2000342F4427585FF3CF469537952795A795DC
:100E3000F0405395C9F77EF41F16BA0B620B730B83
:100E4000840BBAF09150A1F0FF0FBB1F661F771FF4
:100E5000881FC2F70EC0BA0F621F731F841F48F4A9
:100E6000879577956795B795F7959E3F08F0B0CF32
:100E70009395880F08F09927EE0F97958795089519
:100E80000E943A0808F481E008950E9459070C94E2
:100E90009E080E94970858F00E94900840F029F49C
:100EA0005F3F29F00C945E0851110C94EA080C94F1
:100EB0008D080E94AF0868F39923B1F3552391F38D
:100EC000951B550BBB27AA2762177307840738F0B9
:100ED0009F5F5F4F220F331F441FAA1FA9F335D016
:100EE0000E2E3AF0E0E832D091505040E695001CCA
:100EF000CAF72BD0FE2F29D0660F771F881FBB1F84
:100F0000261737074807AB07B0E809F0BB0B802D61
:100F1000BF01FF2793585F4F3AF09E3F510578F08D
:100F20000C945E080C94EA085F3FE4F3983ED4F317
:100F3000869577956795B795F7959F5FC9F7880F61
:100F4000911D9695879597F90895E1E0660F771FB3
:100F5000881FBB1F621773078407BA0720F0621B44
:100F6000730B840BBA0BEE1F88F7E09508950E946F
:100F7000B70888F09F5798F0B92F9927B751B0F06C
:100F8000E1F0660F771F881F991F1AF0BA95C9F70D
:100F900014C0B13091F00E94E908B1E008950C94BA
:100FA000E908672F782F8827B85F39F0B93FCCF36D
:100FB000869577956795B395D9F73EF4909580958A
:100FC000709561957F4F8F4F9F4F0895E89409C0AA
:100FD00097FB3EF490958095709561957F4F8F4F6C
:100FE0009F4F9923A9F0F92F96E9BB279395F69582
:100FF000879577956795B795F111F8CFFAF4BB0F00
:1010000011F460FF1BC06F5F7F4F8F4F9F4F16C063
:10101000882311F096E911C0772321F09EE8872FED
:10102000762F05C0662371F096E8862F70E060E0A9
:101030002AF09A95660F771F881FDAF7880F969522
:10104000879597F908950E94D10890F09F3748F44A
:10105000911116F00C94EA0860E070E080E89FEBD4
:10106000089526F41B16611D711D811D0C946408E2
:101070000C947F08990F0008550FAA0BE0E8FEEFCB
:1010800016161706E807F907C0F012161306E4074C
:10109000F50798F0621B730B840B950B39F40A2645
:1010A00061F0232B242B252B21F408950A2609F423
:1010B000A140A6958FEF811D811D089597F99F6727
:1010C00080E870E060E00895882371F4772321F0D0
:1010D0009850872B762F07C0662311F499270DC0EF
:1010E0009051862B70E060E02AF09A95660F771F8A
:1010F000881FDAF7880F9695879597F908959F3F8F
:1011000031F0915020F4879577956795B795880FC2
:10111000911D9695879597F908959FEF80EC089516
:1011200000240A94161617061806090608950024C6
:101130000A9412161306140605060895092E039440
:10114000000C11F4882352F0BB0F40F4BF2B11F4B4
:1011500060FF04C06F5F7F4F8F4F9F4F089557FD13
:101160009058440F551F59F05F3F71F04795880F15
:1011700097FB991F61F09F3F79F0879508951216AC
:1011800013061406551FF2CF4695F1DF08C0161658
:1011900017061806991FF1CF869571056105089409
:1011A00008950E94B708A0F0BEE7B91788F4BB27DE
:1011B0009F3860F41616B11D672F782F8827985F27
:1011C000F7CF869577956795B11D93959639C8F3B6
:1011D0000895E894BB2766277727CB0197F90895F0
:1011E0000E943A0808F48FEF08950E9408090C94B1
:1011F0009E080E94900838F00E94970820F09523DE
:1012000011F00C945E080C948D0811240C94EA08DB
:101210000E94AF0870F3959FC1F3950F50E0551FE2
:10122000629FF001729FBB27F00DB11D639FAA273B
:10123000F00DB11DAA1F649F6627B00DA11D661F8A
:10124000829F2227B00DA11D621F739FB00DA11DAB
:10125000621F839FA00D611D221F749F3327A00D65
:10126000611D231F849F600D211D822F762F6A2F01
:1012700011249F5750409AF0F1F088234AF0EE0F66
:10128000FF1FBB1F661F771F881F91505040A9F793
:101290009E3F510580F00C945E080C94EA085F3F75
:1012A000E4F3983ED4F3869577956795B795F795CF
:1012B000E7959F5FC1F7FE2B880F911D9695879547
:1012C00097F90895EE0FFF1F0590F491E02D099412
:0412D000F894FFCFC0
:1012D400000000000000000000000000000000000A
:0A12E40000000000003FDE1A5B006E
:00000001FF
