:020000040000FA
:100000000C9462000C948A000C948A000C948A0070
:100010000C948A000C948A000C948A000C948A0038
:100020000C948A000C948A000C948A000C948A0028
:100030000C948A000C948A000C948A000C948A0018
:100040000C9498020C948A000C948A000C948A00F8
:100050000C948A000C948A000C948A000C948A00F8
:100060000C948A000C948A000000000024002700F1
:100070002A0000000000250028002B0000000000DE
:1000800023002600290004040404040404040202DA
:100090000202020203030303030301020408102007
:1000A0004080010204081020010204081020000012
:1000B0000008000201000003040700000000000027
:1000C0000000910711241FBECFEFD8E0DEBFCDBFE7
:1000D00011E0A0E0B1E0E0EEF3E102C005900D9286
:1000E000AA36B107D9F721E0AAE6B1E001C01D9216
:1000F000A638B207E1F710E0C2E6D0E004C02197CD
:10010000FE010E94E809C136D107C9F70E94E20248
:100110000C94EE090C940000833081F028F48130B7
:1001200099F08230A9F008958730A9F08830C9F09D
:100130008430B1F4809180008F7D03C08091800075
:100140008F7780938000089584B58F7784BD08955C
:1001500084B58F7DFBCF8091B0008F778093B00006
:1001600008958091B0008F7DF9CFCF93DF93282F32
:1001700030E0F901E255FF4F8491F901E656FF4F57
:10018000D491F901EA57FF4FC491CC23A1F081111A
:100190000E948C00EC2FF0E0EE0FFF1FE458FF4FA1
:1001A000A591B491EC91ED2381E090E009F480E019
:1001B000DF91CF91089580E090E0FACF1F93CF9325
:1001C000DF93282F30E0F901E255FF4F8491F901C8
:1001D000E656FF4FD491F901EA57FF4FC491CC2363
:1001E000A9F0162F81110E948C00EC2FF0E0EE0F89
:1001F000FF1FEE58FF4FA591B4918FB7F894EC9183
:10020000111108C0D095DE23DC938FBFDF91CF9111
:100210001F910895DE2BF8CFCF93DF9390E0FC0180
:10022000E656FF4F24918A579F4FFC018491882303
:10023000C9F090E0880F991FFC01E859FF4FA59184
:10024000B491FC01EE58FF4FC591D49161110DC0DE
:100250009FB7F8948C91209582238C9388812823D2
:1002600028839FBFDF91CF910895623051F49FB7EB
:10027000F8943C91822F809583238C93E8812E2BD8
:10028000EFCF8FB7F894EC912E2B2C938FBFEACF42
:100290008E50806480937C0080917A00806480938B
:1002A0007A0080917A0086FDFCCF80917800909151
:1002B000790008953FB7F89480918201909183016D
:1002C000A0918401B091850126B5A89B05C02F3F60
:1002D00019F00196A11DB11D3FBFBA2FA92F982F6C
:1002E0008827BC01CD01620F711D811D911D42E067
:1002F000660F771F881F991F4A95D1F70895DC0173
:100300001D961C921D9740E050E060E87FEB1E9622
:100310004D935D936D937C93519713961D921D920F
:100320001D921C92169717961D921D921D921C925B
:100330001A97EC91E93088F0E950F0E0E75BFE4F66
:10034000808190E012969C938E93119781E01B968A
:100350008C931B971C968C930895F0E0EB5AFE4FFC
:1003600080811C968C931C971B968C930895482F24
:1003700050E024E1249FF001259FF00D1124E0506E
:10038000FF4F9081961303C08FEF838B089593895D
:1003900097FD03C03289631759F084E1849FF0010F
:1003A000859FF00D1124E050FF4F628B80E1EDCF6F
:1003B00091110AC060839FEF938B829FC00111242B
:1003C00080509F4F0C947F019150938B08958F9292
:1003D0009F92AF92BF92EF92FF920F931F93CF9392
:1003E000DF93D82F7A018B0184E1D89FF00111248B
:1003F000E050FF4FC08120E030E0A901B701C80103
:10040000C53188F10E94170887FD88C020E030E0E0
:1004100040E85FE3B701C8010E94760918160CF4A2
:1004200082C020E030E048EA51E4B701C8010E94F0
:100430007B090E948E0877FF02C070E060E06531A2
:10044000710514F064E170E0C62F6C2F8D2FDF91E1
:10045000CF911F910F91FF90EF90BF90AF909F9021
:100460008F900C94B7010E94170887FD4DC020E0C3
:1004700030E040E85FE3B701C8010E947609181632
:100480000CF447C0BE2DAF2DF02FE12F20E030E05F
:1004900048EA51E46B2F7A2F8F2F9E2F0E947B0901
:1004A0004B015C016C2F70E06F5F7F4F072E000CDB
:1004B000880B990B0E94C6082DEC3CEC4CE45EE3E3
:1004C0000E94AB079B01AC01C501B4010E947609F3
:1004D00087FF14C06C2F70E090E080E00E94C40899
:1004E0002DEC3CEC4CE45EE30E94AA079B01AC01BE
:1004F000C501B4010E94170887FFA7CF20E030E0B4
:10050000A901B701C8017ECFB0E0A0E0F0E0E0E0D3
:10051000BDCFB0E0A0E0F0E8EFE3B8CFE12CF12CE4
:1005200000E010E07ECFE12CF12C00E81FE379CF52
:100530001F920F920FB60F9211242F933F938F9318
:100540009F93AF93BF9380917E0190917F01A09183
:100550008001B091810130917D0123E0230F2D377F
:1005600058F50196A11DB11D20937D0180937E0158
:1005700090937F01A0938001B093810180918201CB
:1005800090918301A0918401B09185010196A11DF4
:10059000B11D8093820190938301A0938401B09355
:1005A0008501BF91AF919F918F913F912F910F90B6
:1005B0000FBE0F901F90189526E8230F0296A11DDD
:1005C000B11DD2CFCF93DF93CDB7DEB762970FB611
:1005D000F894DEBF0FBECDBF789484B5826084BD31
:1005E00084B5816084BD85B5826085BD85B5816037
:1005F00085BD80916E00816080936E0010928100B5
:10060000809181008260809381008091810081606F
:100610008093810080918000816080938000809130
:10062000B10084608093B1008091B00081608093BC
:10063000B00080917A00846080937A0080917A0083
:10064000826080937A0080917A00816080937A0042
:1006500080917A00806880937A001092C10060E0F7
:1006600081E10E940C0162E084E00E940C0161E0E3
:1006700089E00E940C0161E08AE00E940C0161E0C7
:100680008BE00E940C0161E083E00E940C0160E0BD
:1006900089E00E94DE0060E08AE00E94DE0060E007
:1006A0008BE00E94DE0010924001109241011092F6
:1006B00042011092430110924401109245011092A0
:1006C0004601109247011092480180E091E00E949B
:1006D0007F0184E191E00E947F0188E291E00E9425
:1006E0007F010E945A016093790170937A0180938F
:1006F0007B0190937C01412C512C90E8692E9FEB5B
:10070000792E0E945A016B017C01809179019091B0
:100710007A01A0917B01B0917C01A7019601281B71
:10072000390B4A0B5B0BCA01B9010E94C4082DEBBF
:1007300037E346E855E30E947B094B015C01C09218
:100740007901D0927A01E0927B01F0927C018FB71F
:10075000F894C0907E01D0907F01E0908001F090ED
:1007600081018FBF84E00E94B50010927701109242
:10077000780190917601891751F080937601C092AB
:100780007101D0927201E0927301F0927401809134
:10079000710190917201A0917301B0917401C81A16
:1007A000D90AEA0AFB0A80916D0190916E01A0912D
:1007B0006F01B09170018C159D05AE05BF05B0F4B9
:1007C0009091750180917601981781F08093750161
:1007D000911103C021E0813009F020E020937701DE
:1007E000913009F4811190E0909378018091780123
:1007F0008823F1F0109240011092410110924201C1
:10080000109243011092440110924501109246014A
:10081000109247011092480180E091E00E947F0110
:1008200084E191E00E947F0188E291E00E947F01D3
:100830008EE00E944801BC01990F880B990B0E9421
:10084000C60820E030EC4FE754E40E941C08AB01DE
:10085000BC0180E00E94E7018FE00E944801BC01DA
:10086000990F880B990B0E94C60820E030EC4FE7E7
:1008700054E40E941C08AB01BC0181E00E94E70126
:1008800068E082E00E94B70180E10E944801BC015B
:10089000990F880B990B0E94C60820E030EC4FE7B7
:1008A00054E40E941C086B017C0120E030E0A901A7
:1008B0000E94170887FD1EC120E030E040E85FE39A
:1008C000C701B6010E947609181634F4C12CD12C48
:1008D00080E8E82E8FE3F82EC0923C01D0923D01D3
:1008E000E0923E01F0923F0181E10E94B5009091BB
:1008F0006A01911104C031E03B83813009F01B8211
:100900004B8140936B01913009F4811190E09093F9
:100910006C0180936A0120E030E0A901C501B401B7
:100920000E9476091816A4F4A50194016091400173
:100930007091410180914201909143010E94AB0767
:100940006093400170934101809342019093430171
:1009500080913C0190913D01A0913E01B0913F01F9
:100960008C839D83AE83BF83A0E0B1E0BA83A9836B
:100970001D01F101F081F887F93080F4A50194019F
:10098000D10113966D917D918D919C9116970E9446
:10099000AB07F1016383748385839683D1011E962F
:1009A000CD90DD90ED90FC90519720E030E0A901D2
:1009B000C701B6010E94760987FDAAC0A50194016E
:1009C000C701B6010E94AA076B017C0120E030E05C
:1009D000A9010E94170818160CF090C0F101C686F4
:1009E000D786E08AF18AB4E12B0E311CECE32E1697
:1009F000E1E03E0609F0BDCFFB81FF2309F451C1C0
:100A0000C0904001D0904101E0904201F09043013C
:100A10001092400110924101109242011092430144
:100A20002FE632E143E05BE3C701B6010E9476099D
:100A300087FD15C020E030E040EA51E4C701B6016F
:100A40000E94170818165CF0C0924401D09245012C
:100A5000E0924601F092470121E020934801D090B6
:100A600048018090440190904501A0904601B090CB
:100A7000470140E051E059874887A885B985EC9146
:100A8000E93008F4A3C111968D919C9112970097BB
:100A900009F096C1E950F0E0E25AFE4F6081E62E7F
:100AA000F12C87010150110912961C930E93119796
:100AB000E1E01D96EC9370E090E080E00E94C408B5
:100AC0002C813D814E815F810E947B090E948E08AE
:100AD0006E157F050CF48B0117FD00E0002309F46F
:100AE000CBC0A885B9851E964D925D926D927C9281
:100AF0005197CEC0C12CD12C7601EECED1011E96DD
:100B00004D925D926D927C9251971D961C926BCF87
:100B1000B885B930C8F1B950EB2FF0E0E25AFE4F7A
:100B200020812887622F70E090E080E00E94C40856
:100B30002C813D814E815F810E947B090E948E083D
:100B40003885832F90E0681779071CF0BC0161504D
:100B5000710977FF02C070E060E0662309F443CFBB
:100B6000D1011D962C911D97222309F43CCF11969B
:100B70002D913C9112972F5F3F4F861B970B821749
:100B8000930708F430CFC1CFF1018585882309F49C
:100B90002ACFC780D084E184F28420E030E0A9012C
:100BA000C701B6010E94760918160CF01CCFD101BE
:100BB0001B966C911B971C968C911C97861708F4BA
:100BC00012CF13962D913D914D915C9116972887E8
:100BD00039874A875B876150770B072E000C880B9B
:100BE000990B0E94C608A70196010E947B096C8799
:100BF0007D878E879F872C813D814E815F81C701D4
:100C0000B6010E947B098B018A8B988B2AE037ED15
:100C100043E25CE30E94170887FF06C00AE017ED75
:100C2000B3E2BA8BECE3E88B23E333E343E75FE320
:100C3000C701B6010E947B096B017C0198014A89BA
:100C400058890E94170887FD03C06801EA88F88860
:100C50009601A7016C857D858E859F850E94AB07D7
:100C60009B01AC01688579858A859B850E94760900
:100C700087FDB9CED10149CF2AE037ED43E25CE3ED
:100C8000A885B9851E962D933D934D935C935197FE
:100C9000E885F9857496F987E8872E163F0609F0EE
:100CA000ECCEA981BA81BC91BC83B93008F048C0B0
:100CB000E981FA81C780D084E184F28420E030E0C9
:100CC000A901C701B6010E9417081816CCF5A98121
:100CD000BA811B96BC91BB83E981FA818485B817E0
:100CE00078F56B2F70E090E080E00E94C408A701C7
:100CF00096010E947B099B01AC01A981BA811396E0
:100D00006D917D918D919C9116970E94760987FD3A
:100D100017C0BC81B63019F4EB81E13061F0E1E03D
:100D2000A981BA811D96EC931D971E964D925D92F6
:100D30006D927C925197BB81BF5FE981FA81B38745
:100D400049815A814C5E5F4F5A8349834C535140CD
:100D500009F0A7CF10910D01909121019B83A091E3
:100D60003501A983612F89E00E94DE006B818AE052
:100D70000E94DE0069818BE00E94DE00111171C0CB
:100D8000BB81B11173C0E981EE2309F474C024E181
:100D900030E03A83298361E083E00E940C01A9815D
:100DA000BA81AB2B09F06AC060E083E00E94DE00EC
:100DB00020E030E0232B09F4A4CC0E940000A1CC59
:100DC0000197E885F9859283818362CFA885B985EB
:100DD0001B969C911B971C968C911C97981708F456
:100DE00057CFF0E0EB5AFE4F10811C961C9360E049
:100DF00070E0CB01DD2061F0612F70E090E080E0D9
:100E00000E94C4089B01AC01C501B4010E941C08EA
:100E1000E885F9856783708781879287DF01138270
:100E2000148215821682E1E01B96EC931B97F1E089
:100E30001D96FC9320E030E0A9010E9417081816C7
:100E40000CF44FCE2AE037ED43E25CE3A885B98588
:100E50001E962D933D934D935C9351971B961C9337
:100E600017CF4FEF50E05A83498395CF80E690E04B
:100E70009A83898390CF1A8219828DCFE981FA8172
:100E8000EF3FF10511F461E090CFE1EBF0E08491E8
:100E9000833049F150F48130D1F08230F1F0E981B2
:100EA000FA81E038F1057CF77FCF873041F1883057
:100EB00079F18430A1F78091800080628093800076
:100EC00089819A8190938B0080938A0071CF84B539
:100ED000806884BDF981F7BD6BCF84B5806284BD25
:100EE000298128BD65CF8091800080688093800033
:100EF00049815A81509389004093880059CF80914D
:100F0000B00080688093B00099819093B30050CF77
:100F10008091B00080628093B000A981A093B4005A
:100F200047CFEAE6F1E0108211821282EDE6F1E0AD
:100F300084E190E0A0E0B0E080839183A283B3835A
:100F4000148215821682178281E08087818712863B
:100F5000138608955058BB27AA270E94C2070C94F5
:100F60003C090E942E0938F00E94350920F039F41E
:100F70009F3F19F426F40C942B090EF4E095E7FB3F
:100F80000C942509E92F0E944D0958F3BA176207FE
:100F900073078407950720F079F4A6F50C946F0980
:100FA0000EF4E0950B2EBA2FA02D0B01B901900184
:100FB0000C01CA01A0011124FF27591B99F0593FC8
:100FC00050F4503E68F11A16F040A22F232F342F10
:100FD0004427585FF3CF469537952795A795F0405E
:100FE0005395C9F77EF41F16BA0B620B730B840B73
:100FF000BAF09150A1F0FF0FBB1F661F771F881F2B
:10100000C2F70EC0BA0F621F731F841F48F4879582
:1010100077956795B795F7959E3F08F0B0CF939574
:10102000880F08F09927EE0F9795879508950E94ED
:10103000010908F481E008950E9430080C943C09ED
:101040000E94350958F00E942E0940F029F45F3FB4
:1010500029F00C94250951110C9470090C942B095A
:101060000E944D0968F39923B1F3552391F3951B21
:10107000550BBB27AA2762177307840738F09F5FB9
:101080005F4F220F331F441FAA1FA9F335D00E2E26
:101090003AF0E0E832D091505040E695001CCAF793
:1010A0002BD0FE2F29D0660F771F881FBB1F261756
:1010B00037074807AB07B0E809F0BB0B802DBF012D
:1010C000FF2793585F4F3AF09E3F510578F00C94FC
:1010D00025090C9470095F3FE4F3983ED4F386959C
:1010E00077956795B795F7959F5FC9F7880F911D1D
:1010F0009695879597F90895E1E0660F771F881F09
:10110000BB1F621773078407BA0720F0621B730BBB
:10111000840BBA0BEE1F88F7E09508950E9495089E
:101120006894B1110C94700908950E94550988F0D3
:101130009F5798F0B92F9927B751B0F0E1F0660F9B
:10114000771F881F991F1AF0BA95C9F714C0B130DC
:1011500091F00E946F09B1E008950C946F09672F18
:10116000782F8827B85F39F0B93FCCF3869577950B
:101170006795B395D9F73EF49095809570956195F4
:101180007F4F8F4F9F4F0895E89409C097FB3EF41F
:1011900090958095709561957F4F8F4F9F4F9923C4
:1011A000A9F0F92F96E9BB279395F6958795779542
:1011B0006795B795F111F8CFFAF4BB0F11F460FF02
:1011C0001BC06F5F7F4F8F4F9F4F16C0882311F05A
:1011D00096E911C0772321F09EE8872F762F05C06E
:1011E000662371F096E8862F70E060E02AF09A9509
:1011F000660F771F881FDAF7880F9695879597F9FE
:101200000895990F0008550FAA0BE0E8FEEF161697
:101210001706E807F907C0F012161306E407F507EA
:1012200098F0621B730B840B950B39F40A2661F05E
:10123000232B242B252B21F408950A2609F4A14001
:10124000A6958FEF811D811D089597F99F6780E80E
:1012500070E060E008959FEF80EC089500240A9408
:101260001616170618060906089500240A94121681
:101270001306140605060895092E0394000C11F4B4
:10128000882352F0BB0F40F4BF2B11F460FF04C061
:101290006F5F7F4F8F4F9F4F089557FD9058440FBA
:1012A000551F59F05F3F71F04795880F97FB991FC5
:1012B00061F09F3F79F08795089512161306140682
:1012C000551FF2CF4695F1DF08C01616170618060F
:1012D000991FF1CF86957105610508940895E894EA
:1012E000BB2766277727CB0197F908950E9401094C
:1012F00008F48FEF08950E948E090C943C090E9417
:101300002E0938F00E94350920F0952311F00C9435
:1013100025090C942B0911240C9470090E944D0985
:1013200070F3959FC1F3950F50E0551F629FF00138
:10133000729FBB27F00DB11D639FAA27F00DB11D51
:10134000AA1F649F6627B00DA11D661F829F2227DA
:10135000B00DA11D621F739FB00DA11D621F839F61
:10136000A00D611D221F749F3327A00D611D231F37
:10137000849F600D211D822F762F6A2F11249F5785
:1013800050409AF0F1F088234AF0EE0FFF1FBB1F88
:10139000661F771F881F91505040A9F79E3F510547
:1013A00080F00C9425090C9470095F3FE4F3983E9B
:1013B000D4F3869577956795B795F795E7959F5FF1
:1013C000C1F7FE2B880F911D9695879597F9089583
:1013D000EE0FFF1F0590F491E02D0994F894FFCFD4
:1013E00008000000000000000000000101000000F3
:1013F00080BF08FF0800000000000000000000019E
:101400000100000080BF08FF08000000000000008D
:10141000000000010100000080BF08FF0000003F45
:1014200000000000000000000000010000020000B9
:101430000000000000100706050403030201020279
:0A14400003040406081018204060A1
:107E0000112484B714BE81FFF0D085E080938100F7
:107E100082E08093C00088E18093C10086E0809377
:107E2000C20080E18093C4008EE0C9D0259A86E02C
:107E300020E33CEF91E0309385002093840096BBD3
:107E4000B09BFECF1D9AA8958150A9F7CC24DD24C4
:107E500088248394B5E0AB2EA1E19A2EF3E0BF2EE7
:107E6000A2D0813461F49FD0082FAFD0023811F036
:107E7000013811F484E001C083E08DD089C08234E0
:107E800011F484E103C0853419F485E0A6D080C0E4
:107E9000853579F488D0E82EFF2485D0082F10E0AE
:107EA000102F00270E291F29000F111F8ED06801E7
:107EB0006FC0863521F484E090D080E0DECF843638
:107EC00009F040C070D06FD0082F6DD080E0C81688
:107ED00080E7D80618F4F601B7BEE895C0E0D1E017
:107EE00062D089930C17E1F7F0E0CF16F0E7DF06D8
:107EF00018F0F601B7BEE89568D007B600FCFDCFD4
:107F0000A601A0E0B1E02C9130E011968C91119780
:107F100090E0982F8827822B932B1296FA010C0160
:107F200087BEE89511244E5F5F4FF1E0A038BF0790
:107F300051F7F601A7BEE89507B600FCFDCF97BE46
:107F4000E89526C08437B1F42ED02DD0F82E2BD052
:107F50003CD0F601EF2C8F010F5F1F4F84911BD097
:107F6000EA94F801C1F70894C11CD11CFA94CF0C13
:107F7000D11C0EC0853739F428D08EE10CD085E9AC
:107F80000AD08FE07ACF813511F488E018D01DD067
:107F900080E101D065CF982F8091C00085FFFCCF94
:107FA0009093C60008958091C00087FFFCCF809118
:107FB000C00084FD01C0A8958091C6000895E0E648
:107FC000F0E098E1908380830895EDDF803219F02E
:107FD00088E0F5DFFFCF84E1DECF1F93182FE3DFCA
:107FE0001150E9F7F2DF1F91089580E0E8DFEE27F6
:047FF000FF270994CA
:027FFE00040479
:00000001FF
