:100000000C9462000C948A000C948A000C948A0070
:100010000C948A000C948A000C948A000C948A0038
:100020000C948A000C948A000C948A000C948A0028
:100030000C948A000C948A000C948A000C948A0018
:100040000C945A010C948A000C948A000C948A0037
:100050000C948A000C948A000C948A000C948A00F8
:100060000C948A000C948A000000000024002700F1
:100070002A0000000000250028002B0000000000DE
:1000800023002600290004040404040404040202DA
:100090000202020203030303030301020408102007
:1000A0004080010204081020010204081020000012
:1000B0000008000201000003040700000000000027
:1000C00000005A0511241FBECFEFD8E0DEBFCDBF20
:1000D00011E0A0E0B1E0E4E8F1E102C005900D928A
:1000E000AE30B107D9F722E0AEE0B1E001C01D9219
:1000F000AA35B207E1F710E0C2E6D0E004C02197CC
:10010000FE010E94BA08C136D107C9F70E94A401B6
:100110000C94C0080C940000833081F028F48130E6
:1001200099F08230A9F008958730A9F08830C9F09D
:100130008430B1F4809180008F7D03C08091800075
:100140008F7780938000089584B58F7784BD08955C
:1001500084B58F7DFBCF8091B0008F778093B00006
:1001600008958091B0008F7DF9CFCF93DF93282F32
:1001700030E0F901E255FF4F8491F901E656FF4F57
:10018000D491F901EA57FF4FC491CC23A1F081111A
:100190000E948C00EC2FF0E0EE0FFF1FE458FF4FA1
:1001A000A591B491EC91ED2381E090E009F480E019
:1001B000DF91CF91089580E090E0FACF1F93CF9325
:1001C000DF93282F30E0F901E255FF4F8491F901C8
:1001D000E656FF4FD491F901EA57FF4FC491CC2363
:1001E000A9F0162F81110E948C00EC2FF0E0EE0F89
:1001F000FF1FEE58FF4FA591B4918FB7F894EC9183
:10020000111108C0D095DE23DC938FBFDF91CF9111
:100210001F910895DE2BF8CFCF93DF9390E0FC0180
:10022000E656FF4F24918A579F4FFC018491882303
:10023000C9F090E0880F991FFC01E859FF4FA59184
:10024000B491FC01EE58FF4FC591D49161110DC0DE
:100250009FB7F8948C91209582238C9388812823D2
:1002600028839FBFDF91CF910895623051F49FB7EB
:10027000F8943C91822F809583238C93E8812E2BD8
:10028000EFCF8FB7F894EC912E2B2C938FBFEACF42
:100290008E50806480937C0080917A00806480938B
:1002A0007A0080917A0086FDFCCF80917800909151
:1002B000790008951F920F920FB60F9211242F9379
:1002C0003F938F939F93AF93BF93809156029091EA
:1002D0005702A0915802B09159023091550223E083
:1002E000230F2D3758F50196A11DB11D20935502FE
:1002F0008093560290935702A0935802B0935902EC
:100300008091510290915202A0915302B0915402F7
:100310000196A11DB11D8093510290935202A093AA
:100320005302B0935402BF91AF919F918F913F912F
:100330002F910F900FBE0F901F90189526E8230F56
:100340000296A11DB11DD2CFCF93DF9300D000D074
:10035000CDB7DEB7789484B5826084BD84B5816002
:1003600084BD85B5826085BD85B5816085BD809180
:100370006E00816080936E001092810080918100F8
:1003800082608093810080918100816080938100F0
:10039000809180008160809380008091B1008460B2
:1003A0008093B1008091B00081608093B000809113
:1003B0007A00846080937A0080917A0082608093D2
:1003C0007A0080917A00816080937A0080917A002F
:1003D000806880937A001092C10060E081E10E9401
:1003E0000C0160E089E00E940C0162E084E00E9460
:1003F0000C0161E08AE00E940C0161E08BE00E9448
:100400000C0161E083E00E940C0160E08BE00E943F
:10041000DE0083E28093B00081E08093B10082E847
:100420008093800089E1809381002FEF30E030934A
:1004300087002093860092E2909380008093810051
:100440008FEF93E0909387008093860010928B004B
:1004500010928A008EE00E94480190934C02809393
:100460004B028FE00E94480190934A028093490218
:1004700080E10E944801909348028093470217E070
:1004800040E0242E40E0342E05E18FB7F8944090F0
:1004900056025090570260905802709059028FBFD8
:1004A00080914D0290914E02A0914F02B091500266
:1004B000A3019201281B390B4A0B5B0BDA01C9011E
:1004C0000497A105B10508F456C040924D02509220
:1004D0004E0260924F027092500280914B029091B6
:1004E0004C02AC01440F551F480F591F5A834983D2
:1004F0008EE00E944801A981BA818A0F9B1F9695C0
:1005000087959695879590934C0280934B028091A6
:10051000490290914A02FC01EE0FFF1FE80FF91FFC
:10052000FA83E9838FE00E94480129813A81820F92
:10053000931F969587959695879590934A028093F9
:1005400049028091470290914802AC01440F551F27
:10055000480F591F5A83498380E10E944801A981AD
:10056000BA818A0F9B1F969587959695879590934C
:1005700048028093470289E00E94B500209144021E
:10058000211103C091E0813009F090E09093450281
:10059000213011F491E0811190E090934602809314
:1005A000440284E00E94B50010924202109243027D
:1005B00090914102891751F08093410240923C0290
:1005C00050923D0260923E0270923F0280913C0246
:1005D00090913D02A0913E02B0913F02B301A20171
:1005E000481B590B6A0B7B0B8091380290913902A2
:1005F000A0913A02B0913B0284179507A607B7076E
:10060000B0F49091400280914102981781F080935C
:100610004002911103C021E0813009F020E02093D5
:100620004202913009F4811190E09093430280914D
:100630004502811103C0809143028111109216017D
:1006400081E10E94B50020911301211103C091E0C6
:10065000813009F090E090931401213009F4811168
:1006600020E02093150180931301992309F43CC1E4
:10067000609147027091480290E080E00E944D072F
:1006800020E030EC4FE754E40E94AC0669837A83A3
:100690008B839C836091490270914A0290E080E0D4
:1006A0000E944D0720E030EC4FE754E40E94AC0676
:1006B0006B017C0160914B0270914C0290E080E0F4
:1006C0000E944D0720E030EC4FE754E40E94AC0656
:1006D0004B015C0120E030E040E85FE30E94DB0773
:1006E000181634F4812C912C30E8A32E3FE3B32E5E
:1006F00020E030EC4FE754E4C501B4010E94E0076C
:1007000020E030E040E05FE30E9440060E941E07C8
:100710004B0120E030E040E85FE3C701B6010E94F2
:10072000DB07181634F4C12CD12C20E8E22E2FE37D
:10073000F22E20E030EC4FE754E4C701B6010E94EE
:10074000E00720E030E040E05FE30E9440060E94C6
:100750001E076B0120E030E040E85FE369817A81A9
:100760008B819C810E94DB07181644F420E030E066
:1007700040E85FE329833A834B835C8320E030ECDD
:100780004FE754E469817A818B819C810E94E00764
:1007900020E030E040E05FE30E9440060E941E0738
:1007A000A5E076956795AA95E1F7A62F6095862F27
:1007B0008F70B6E096948794BA95E1F795E0D69459
:1007C000C7949A95E1F7B0911601B111C4C0873072
:1007D00039F08B3029F093EF980F933008F0A9C0CF
:1007E0001092170180911701612F0E9471083CE05F
:1007F000839F802D11248983292F30E0A03108F4B4
:1008000004C1295F3E4FF9018081F981F80F2F2F34
:10081000022E000C330B3A83298337FF02C01A8261
:10082000198249815A814A32510524F089E290E0C7
:100830009A838983698160931801BF5FB03108F0A2
:10084000E7C0B0931601062E000C770B880B990BAE
:100850000E944F072BEA3AEA4AEA5DE30E94E0076A
:1008600020E030E040EA50E40E94AC0620E030ECAA
:100870004FE754E40E94E00720E030E040E05FE30F
:100880000E9440060E941E0770938B0060938A00AE
:100890002FEF30E0A981BA810E947D0829E230E083
:1008A00040E050E00E94EF05F22EE32E29833A83C8
:1008B00061E083E00E940C01A981BA81AB2B09F0B1
:1008C000AAC060E083E00E94DE0061E08BE00E944D
:1008D000DE0040920F01509210016092110170925F
:1008E000120131E030930E0180910E018823D1F086
:1008F00080910F0190911001A0911101B09112010E
:10090000A3019201281B390B4A0B5B0BDA01C901C9
:100910000A97A105B10530F060E08BE00E94DE008F
:1009200010920E012114310409F4AFCD0E94000091
:10093000ABCD883021F0843011F0833018F400936F
:10094000170150CF637021F48EE0809317014ACFD6
:100950001093170147CFF601FF274B2F50E090E08F
:100960009C0174E0220F331F7A95E1F7EA5EFE4F97
:10097000E40FF51FE20FF31F23812058330B829EF3
:10098000B001839E700D1124E4E075956795EA959A
:10099000E1F7E9E0E69F9001E79F300D1124220F77
:1009A000232F221F330B37FF02C02F5F3F4F559578
:1009B00047955595479502C0959587954A95E2F7D5
:1009C000AC014170552780FD02C04FEF5FEF420F31
:1009D000531F4115510509F09A0160911701862FA7
:1009E000062E000C990BAC01420F531F4A315105E2
:1009F00018F0319521953109820F931F4A9708F01D
:100A0000F1CE260F20931701EDCE20503F4FFBCEA5
:100A10001092160118CFE981FA81EF3FF10511F428
:100A200061E050CFE1EBF0E08491833039F150F494
:100A30008130D1F08230E9F029813A8120383105C6
:100A40007CF73FCF873031F1883061F18430A1F7F6
:100A5000809180008062809380008F2D9E2D9093E6
:100A60008B0080938A0031CF84B5806884BDF7BC49
:100A70002CCF84B5806284BDF8BC27CF80918000E4
:100A80008068809380008F2D9E2D909389008093A5
:100A900088001BCF8091B00080688093B000F092F6
:100AA000B30013CF8091B00080628093B000F092C9
:100AB000B4000BCFBF92CF92DF92EF92FF920F93D1
:100AC0001F93CF93DF93109216018EE0809317014E
:100AD0001092180189E1E82E81E0F82EC2EDB4E011
:100AE000A0E0C12CB12CD0E0D12C10E02C2F3B2F5A
:100AF0004A2F5C2D6B2D7D2F8D2D912F05E10E94AE
:100B00008408C227B327A427FC2DF527EB2DE62761
:100B1000D727D82619272C2F3B2F4A2F5F2F6E2F30
:100B20007D2F8D2D912F03E20E949F08C227B327AE
:100B3000A427F527E627D727D82619272C2F3B2FC0
:100B40004A2F5F2F6E2F7D2F8D2D912F04E00E9455
:100B50008408C227B327A427CF2EC526BE2EB626CB
:100B6000D727D8261927F701C1937F01F8E3EF169D
:100B7000F2E0FF0609F0BACF1092130110921401AF
:100B800010921501109244021092450210924602F2
:100B900082E390E0A0E0B0E08093380290933902C5
:100BA000A0933A02B0933B0210923C0210923D0295
:100BB00010923E0210923F0281E0809340028093A7
:100BC00041021092420210924302DF91CF911F9195
:100BD0000F91FF90EF90DF90CF90BF900895052E7A
:100BE00097FB1EF400940E94060657FD07D00E9452
:100BF0000E0607FC03D04EF40C9406065095409563
:100C0000309521953F4F4F4F5F4F089590958095B8
:100C1000709561957F4F8F4F9F4F0895A1E21A2ED7
:100C2000AA1BBB1BFD010DC0AA1FBB1FEE1FFF1F90
:100C3000A217B307E407F50720F0A21BB30BE40BE0
:100C4000F50B661F771F881F991F1A9469F7609527
:100C50007095809590959B01AC01BD01CF010895E1
:100C6000A29FB001B39FC001A39F700D811D1124ED
:100C7000911DB29F700D811D1124911D0895505832
:100C8000BB27AA270E9457060C94A1070E9493072E
:100C900038F00E949A0720F039F49F3F19F426F4A7
:100CA0000C9490070EF4E095E7FB0C948A07E92F6B
:100CB0000E94B20758F3BA176207730784079507B3
:100CC00020F079F4A6F50C94D4070EF4E0950B2EE1
:100CD000BA2FA02D0B01B90190010C01CA01A0018E
:100CE0001124FF27591B99F0593F50F4503E68F1E9
:100CF0001A16F040A22F232F342F4427585FF3CF2A
:100D0000469537952795A795F0405395C9F77EF4FA
:100D10001F16BA0B620B730B840BBAF09150A1F043
:100D2000FF0FBB1F661F771F881FC2F70EC0BA0FC9
:100D3000621F731F841F48F4879577956795B79551
:100D4000F7959E3F08F0B0CF9395880F08F099274C
:100D5000EE0F9795879508950E94C0060C94A10701
:100D60000E949A0758F00E94930740F029F45F3FD1
:100D700029F00C948A0751110C94D5070C94900714
:100D80000E94B20768F39923B1F3552391F3951BA1
:100D9000550BBB27AA2762177307840738F09F5F9C
:100DA0005F4F220F331F441FAA1FA9F335D00E2E09
:100DB0003AF0E0E832D091505040E695001CCAF776
:100DC0002BD0FE2F29D0660F771F881FBB1F261739
:100DD00037074807AB07B0E809F0BB0B802DBF0110
:100DE000FF2793585F4F3AF09E3F510578F00C94DF
:100DF0008A070C94D5075F3FE4F3983ED4F38695B9
:100E000077956795B795F7959F5FC9F7880F911DFF
:100E10009695879597F90895E1E0660F771F881FEB
:100E2000BB1F621773078407BA0720F0621B730B9E
:100E3000840BBA0BEE1F88F7E09508950E94BA075D
:100E400088F09F5798F0B92F9927B751B0F0E1F08B
:100E5000660F771F881F991F1AF0BA95C9F714C03B
:100E6000B13091F00E94D407B1E008950C94D407FA
:100E7000672F782F8827B85F39F0B93FCCF3869574
:100E800077956795B395D9F73EF4909580957095D1
:100E900061957F4F8F4F9F4F0895E89409C097FB4E
:100EA0003EF490958095709561957F4F8F4F9F4F41
:100EB0009923A9F0F92F96E9BB279395F695879585
:100EC00077956795B795F111F8CFFAF4BB0F11F448
:100ED00060FF1BC06F5F7F4F8F4F9F4F16C08823EF
:100EE00011F096E911C0772321F09EE8872F762F25
:100EF00005C0662371F096E8862F70E060E02AF066
:100F00009A95660F771F881FDAF7880F9695879551
:100F100097F9089597F99F6780E870E060E0089579
:100F20009FEF80EC089500240A9416161706180601
:100F30000906089500240A941216130614060506DD
:100F40000895092E0394000C11F4882352F0BB0F6E
:100F500040F4BF2B11F460FF04C06F5F7F4F8F4FD1
:100F60009F4F089557FD9058440F551F59F05F3F0C
:100F700071F04795880F97FB991F61F09F3F79F0BB
:100F800087950895121613061406551FF2CF46953D
:100F9000F1DF08C0161617061806991FF1CF8695BF
:100FA0007105610508940895E894BB2766277727A3
:100FB000CB0197F908950E944D0808F48FEF08952A
:100FC0000E94F3070C94A1070E94930738F00E9437
:100FD0009A0720F0952311F00C948A070C9490073F
:100FE00011240C94D5070E94B20770F3959FC1F3AA
:100FF000950F50E0551F629FF001729FBB27F00DC7
:10100000B11D639FAA27F00DB11DAA1F649F66271B
:10101000B00DA11D661F829F2227B00DA11D621F6A
:10102000739FB00DA11D621F839FA00D611D221F24
:10103000749F3327A00D611D231F849F600D211D08
:10104000822F762F6A2F11249F5750409AF0F1F08B
:1010500088234AF0EE0FFF1FBB1F661F771F881FF4
:1010600091505040A9F79E3F510580F00C948A079B
:101070000C94D5075F3FE4F3983ED4F386957795BB
:101080006795B795F795E7959F5FC1F7FE2B880F9A
:10109000911D9695879597F90895990F0008550F1A
:1010A000AA0BE0E8FEEF16161706E807F907C0F0EE
:1010B00012161306E407F50798F0621B730B840BF6
:1010C000950B39F40A2661F0232B242B252B21F4D0
:1010D00008950A2609F4A140A6958FEF811D811D70
:1010E0000895991B79E004C0991F961708F0961B84
:1010F000881F7A95C9F7809508950E943006B7FF3A
:101100000895821B930B0895002E083090F0982FBD
:10111000872F762F652F542F432F322F22270850E9
:10112000F4CF220F331F441F551F661F771F881FE0
:10113000991F0A95B2F7002D089597FD1094002E7F
:10114000083098F00850232F342F452F562F672F43
:10115000782F892F912DF4CF1594979587957795B2
:10116000679557954795379527950A95AAF71124BE
:10117000002D0895EE0FFF1F0590F491E02D0994C6
:04118000F894FFCF11
:0E1184000002030507080A0002040507090B14
:00000001FF
