:100000000C9462000C948A000C948A000C948A0070
:100010000C948A000C948A000C948A000C948A0038
:100020000C948A000C948A000C948A000C948A0028
:100030000C948A000C948A000C948A000C948A0018
:100040000C948E020C948A000C948A000C948A0002
:100050000C948A000C948A000C948A000C948A00F8
:100060000C948A000C948A000000000024002700F1
:100070002A0000000000250028002B0000000000DE
:1000800023002600290004040404040404040202DA
:100090000202020203030303030301020408102007
:1000A0004080010204081020010204081020000012
:1000B0000008000201000003040700000000000027
:1000C0000000970711241FBECFEFD8E0DEBFCDBFE1
:1000D00011E0A0E0B1E0E2E9F4E102C005900D9288
:1000E000A033B107D9F721E0A0E3B1E001C01D9230
:1000F000A338B207E1F710E0C2E6D0E004C02197D0
:10010000FE010E94410AC136D107C9F70E94D802F8
:100110000C94470A0C940000E091790190917A01C7
:10012000911126C0E7FD10927901809179019FEF2E
:10013000813138F4E82F082E000CFF0BE959FE4FEF
:10014000908190937E01E1E0E80FE0937901E13145
:1001500040F40E2E000CFF0BE959FE4F908197FFE3
:1001600006C091E090937A018150809379010895BF
:10017000E13138F40E2E000CFF0BE959FE4F90814F
:1001800097FD80937901809179019FEF813138F457
:10019000E82F082E000CFF0BE959FE4F9081909339
:1001A0007E0181508093790187FFE1CF10927A011F
:1001B00081E0DBCFCF93DF93E7E6F1E08FEF819330
:1001C00091E0E837F907D9F780917B0190E0FC01D5
:1001D000EE0FFF1FE05FFE4F6081718180509F4FE7
:1001E000FC01808190917C019330B9F48F5F823162
:1001F00008F081E140917D0190E0E0E0C1E0D0E0D5
:10020000E81760F530E020E0442379F041502F5F9B
:100210003F4F2C303105C1F71EC0993011F4880FC3
:10022000E5CF963020F3880FE2CFDE01022E02C028
:10023000AA0FBB1F0A94E2F7A623B723AB2B39F30F
:1002400051E05E0FF0E0E959FE4FA92FA20FA08305
:10025000E52F5817E0F2945F943291F6E09378011D
:10026000DF91CF910895833081F028F4813099F0A7
:100270008230A9F008958730A9F08830C9F0843021
:10028000B1F4809180008F7D03C0809180008F77D2
:1002900080938000089584B58F7784BD089584B5D8
:1002A0008F7DFBCF8091B0008F778093B000089551
:1002B0008091B0008F7DF9CFCF93DF93282F30E06E
:1002C000F901E255FF4F8491F901E656FF4FD491B1
:1002D000F901EA57FF4FC491CC23A1F081110E948C
:1002E0003301EC2FF0E0EE0FFF1FE458FF4FA59114
:1002F000B491EC91ED2381E090E009F480E0DF918E
:10030000CF91089580E090E0FACF1F93CF93DF93D1
:10031000282F30E0F901E255FF4F8491F901E656AC
:10032000FF4FD491F901EA57FF4FC491CC23A9F0B4
:10033000162F81110E943301EC2FF0E0EE0FFF1F0A
:10034000EE58FF4FA591B4918FB7F894EC9111112D
:1003500008C0D095DE23DC938FBFDF91CF911F9132
:100360000895DE2BF8CFCF93DF9390E0FC01E656A3
:10037000FF4F24918A579F4FFC0184918823C9F035
:1003800090E0880F991FFC01E859FF4FA591B491A7
:10039000FC01EE58FF4FC591D49161110DC09FB77C
:1003A000F8948C91209582238C938881282328832C
:1003B0009FBFDF91CF910895623051F49FB7F894B9
:1003C0003C91822F809583238C93E8812E2BEFCF55
:1003D0008FB7F894EC912E2B2C938FBFEACF8E50D1
:1003E000806480937C0080917A00806480937A009E
:1003F00080917A0086FDFCCF809178009091790001
:100400000895CF92DF92EF92FF92CF93DF936B012B
:100410007C0120E030EC4FE754E40E94B00920E07A
:1004200030E040E05FE30E9409080E94E7086115A0
:1004300084E0780714F06FEF73E077FF02C070E09C
:1004400060E070938B0060938A0020E030E048E425
:1004500053E4C701B6010E94B0090E94E7086B018E
:10046000EB0161E083E00E94B301209751F460E06A
:1004700083E0DF91CF91FF90EF90DF90CF900C94CD
:100480008501CF3FD10511F461E0F2CFE1EBF0E05F
:10049000E491E33049F140F4E130B1F0E230F9F0B9
:1004A000C038D1058CF7E3CFE73041F1E83071F186
:1004B000E430B1F780918000806280938000D09218
:1004C0008B00C0928A0004C084B5806884BDC7BC1C
:1004D000DF91CF91FF90EF90DF90CF90089584B59A
:1004E000806284BDC8BCF4CF809180008068809316
:1004F0008000D0928900C0928800EACF8091B0003D
:1005000080688093B000C092B300E2CF8091B000C9
:1005100080628093B000C092B400DACF1F920F9235
:100520000FB60F9211242F933F938F939F93AF9306
:10053000BF938091630190916401A0916501B09196
:1005400066013091620123E0230F2D3758F50196A3
:10055000A11DB11D209362018093630190936401FA
:10056000A0936501B093660180915E0190915F0157
:10057000A0916001B09161010196A11DB11D809310
:100580005E0190935F01A0936001B0936101BF9100
:10059000AF919F918F913F912F910F900FBE0F9030
:1005A0001F90189526E8230F0296A11DB11DD2CFEA
:1005B000789484B5826084BD84B5816084BD85B53E
:1005C000826085BD85B5816085BD80916E0081604A
:1005D00080936E00109281008091810082608093F0
:1005E00081008091810081608093810080918000F2
:1005F0008160809380008091B10084608093B1001D
:100600008091B00081608093B00080917A00846016
:1006100080937A0080917A00826080937A00809142
:100620007A00816080937A0080917A00806880935C
:100630007A001092C10062E084E00E94B30160E0A1
:1006400081E10E94B30161E08AE00E94B30161E0B0
:100650008BE00E94B30161E083E00E94B30160E09F
:100660008BE00E94850190E080E00E94D00780939B
:100670004801843010F01092480183E28093B0006A
:1006800081E08093B10082E88093800089E18093CB
:1006900081002FEF30E0309387002093860092E2B4
:1006A00090938000809381008FEF93E09093870078
:1006B0008093860010928B0010928A0083E10E9442
:1006C000EF01092E000CAA0BBB0B5C0199248824B6
:1006D00082E10E94EF01092E000CAA0BBB0BB501B1
:1006E000A401482759276A277B2788169906AA0656
:1006F000BB0621F441E050E060E070E040937F01F0
:100700005093800160938101709382018EE00E947A
:10071000EF019093310180933001909333018093E6
:1007200032019093350180933401109236018FE0AD
:100730000E94EF01909342018093410180E10E9469
:10074000EF01909344018093430177E0D72EC0E0FE
:10075000D0E0FF24F394EE24EA948FB7F8948090CD
:10076000630190906401A0906501B09066018FBF15
:1007700080925A0190925B01A0925C01B0925D015F
:1007800084E00E945C0110925801109259019091EE
:100790005701891751F0809357018092520190922E
:1007A0005301A0925401B092550180915201909151
:1007B0005301A0915401B0915501B501A401481B0A
:1007C000590B6A0B7B0B80914E0190914F01A091C8
:1007D0005001B091510184179507A607B707B0F4EF
:1007E0009091560180915701981781F0809356019E
:1007F000911103C021E0813009F020E020935801DD
:10080000913009F4811190E0909359018091590140
:10081000882351F080924A0190924B01A0924C01A2
:10082000B0924D011092490180914901811121C07E
:100830008091560181111DC080914A0190914B0118
:10084000A0914C01B0914D01881A990AAA0ABB0ADD
:1008500024EF821621E09206A104B10450F0F09238
:1008600049010E94DA00E092790110927A01109217
:100870007E0180915801882389F08091490181117E
:100880000DC06091480170E06F5F7F4F6370772704
:100890006093480190E080E00E94D80781E10E94C7
:1008A0005C0190914501911103C021E0813009F074
:1008B00020E020934601913009F4811190E090935B
:1008C000470180934501222309F4BEC210914801DB
:1008D000609143017091440190E080E00E941D0905
:1008E00020E030EC4FE754E40E9475084B015C01B6
:1008F00020E030E040E85FE30E94AB09181634F4D2
:10090000812C912C60E8A62E6FE3B62E20E030E01B
:1009100040E451E4C501B4010E94B0090E94E70817
:100920006C30710514F06BE070E0062F60914101AE
:100930007091420190E080E00E941D0920E030ECBF
:100940004FE754E40E9475084B015C0120E030E061
:1009500040E85FE30E94AB09181634F4812C912C17
:1009600050E8A52E5FE3B52E20E030E040E851E4EA
:10097000C501B4010E94B0090E94E7086031710509
:1009800014F06FE070E0603108F06FE00C3008F0B8
:100990000BE0E62FF0E0E050FF4F80818150181708
:1009A00008F4812F20917B01621308C020917C0103
:1009B000021304C020917D01281771F060937B0120
:1009C00000937C0180937D010E94DA00E09279011E
:1009D00010927A0110927E01E0917B01F0E0E050EC
:1009E000FF4F90812FEF290F990F8FEF890FE09123
:1009F0007C01EC3078F5F0E0E050FB4F0C94410ABC
:100A00000C053F056B056B056F05D8050C055C05EE
:100A10006C056C056F05D805E0917901E13138F47A
:100A20000E2E000CFF0BE959FE4F808187FD1092BE
:100A30007901809179019FEF813138F4E82F082EF8
:100A4000000CFF0BE959FE4F908190937E018F5F60
:100A50008093790180917E0187FD10927E018091C3
:100A60007E016091400170E0680F711D87FD7A95ED
:100A70006C3371050CF4E6C06C507109F9CFE0914C
:100A80007901E13138F40E2E000CFF0BE959FE4FCD
:100A9000808187FD20937901809179019FEF8131D9
:100AA00038F4E82F082E000CFF0BE959FE4F908117
:100AB00090937E018150CCCFE0917901E13140F4F7
:100AC0000E2E000CFF0BE959FE4F908197FFE4CFEB
:100AD00080937901E1CF822F0E948C00BBCF2091BF
:100AE0007801223018F41092790144C010917901F4
:100AF00080917F0190918001A0918101B09182014C
:100B00004C015D010DE0880C991CAA1CBB1C0A95C8
:100B1000D1F788269926AA26BB26D501C40131E142
:100B2000B695A795979587953A95D1F788269926F2
:100B3000AA26BB26C501B40145E0660F771F881FB2
:100B4000991F4A95D1F7682579258A259B256093B9
:100B50007F0170938001809381019093820117FD42
:100B600002C01217A8F030E050E040E00E94E60713
:100B700060937901E09179018FEFE13130F40E2E2D
:100B8000000CFF0BE959FE4F808180937E0162CFFC
:100B90002150330B032E000C440B550B0E94E6072B
:100BA000862F611710F081E0860F80937901E2CFE4
:100BB00020917801223008F496CF8091790191E05C
:100BC000980F181614F0892FF0CF9217C8F540919E
:100BD0007F015091800160918101709182018A01B1
:100BE0009B01EDE0000F111F221F331FEA95D1F783
:100BF0000427152726273727B901A801F1E17695A3
:100C0000679557954795FA95D1F704271527262715
:100C10003727B901A801A5E0440F551F661F771FAC
:100C2000AA95D1F7402751276227732740937F0168
:100C300050938001609381017093820140FDC3CF86
:100C40008150B3CF77FD60E070E090E080E00E94DB
:100C50001D0920E030E040E752E40E9475080E9440
:100C6000010280915A0190915B01A0915C01B091C9
:100C70005D010296A11DB11D80933C0190933D0141
:100C8000A0933E01B0933F01F0923B0180905A0146
:100C900090905B01A0905C01B0905D0180913B0160
:100CA0008823C1F080913C0190913D01A0913E01CB
:100CB000B0913F01A5019401281B390B4A0B5B0B36
:100CC000DA01C901B7FD06C010923B0161E08BE07B
:100CD0000E9485018091370190913801A0913901DE
:100CE000B0913A01A5019401281B390B4A0B5B0B0B
:100CF000DA01C9010497A105B10508F412C1809277
:100D0000370190923801A0923901B0923A01809156
:100D10004101909142018C01000F111F080F191F12
:100D20008FE00E94EF01800F911F96958795969511
:100D30008795909342018093410180914301909166
:100D400044018C01000F111F080F191F80E10E9440
:100D5000EF01800F911F96958795969587959093B3
:100D600044018093430182E10E94EF018C018EE0F7
:100D70000E94EF01092E000CAA0BBB0B012E000CE8
:100D8000220B330B800F911FA21FB31FB7FD66C04C
:100D9000811534E09307A105B1050CF062C06091A4
:100DA0003001709131019C01261B370B68177907C0
:100DB00018F09B01281B390B2032310508F454C070
:100DC000909331018093300184E0809336016091EB
:100DD00030017091310190E080E00E941D0920E017
:100DE00030EC4FE754E40E9475084B015C0120E0B1
:100DF00030E040E85FE30E94AB09181634F4812C20
:100E0000912C80E8A82E8FE3B82E20E030E040E15E
:100E100052E4C501B4010E94B0090E94E70864329F
:100E2000710514F063E270E06093400180917E01EF
:100E30007727680F711D87FD7A956C3371050CF467
:100E400061C06C507109F9CF992309F41FCF10923A
:100E50003B0160E08BE00E94850118CF90E080E0CC
:100E60009ECF8FEF93E09BCF20913601E09132012E
:100E7000F09133012223A1F0215020933601860FF7
:100E8000971F969587959093310180933001F09349
:100E90003501E0933401909333018093320197CF71
:100EA0004091340150913501E817F90708F14E17C8
:100EB0005F0730F59C018417950708F49A01F093B9
:100EC0003501E09334019093330180933201D69E33
:100ED000A001D79E500D1124240F351F93E03695A5
:100EE00027959A95E1F730933101209330016FCF28
:100EF0009C014817590718F79A014E175F07F8F633
:100F00009F01DDCF77FD60E070E090E080E00E941F
:100F10001D0920E030E040E752E40E9475080E947D
:100F20000102209709F419CC0E94000016CCCF933F
:100F3000DF93C7E6D1E01C8A1D8A1E8A82E090EB0F
:100F4000ADEABBE1888F998FAA8FBB8F0E94DA0030
:100F50008FEF8A8B1B8A1F8AE0E3F1E011821082F7
:100F600013821282158214821682EEE4F1E082E38B
:100F700090E0A0E0B0E080839183A283B3831482E9
:100F800015821682178281E08087818712861386F8
:100F9000E5E4F1E0108211821282DF91CF91089591
:100FA000F999FECF92BD81BDF89A992780B5089531
:100FB000262FF999FECF1FBA92BD81BD20BD0FB675
:100FC000F894FA9AF99A0FBE01960895A1E21A2EA2
:100FD000AA1BBB1BFD010DC0AA1FBB1FEE1FFF1FDD
:100FE000A217B307E407F50720F0A21BB30BE40B2D
:100FF000F50B661F771F881F991F1A9469F7609574
:101000007095809590959B01AC01BD01CF0108952D
:101010005058BB27AA270E9420080C9471090E94EF
:10102000630938F00E946A0920F039F49F3F19F4EF
:1010300026F40C9460090EF4E095E7FB0C945A0931
:10104000E92F0E94820958F3BA17620773078407D1
:10105000950720F079F4A6F50C94A4090EF4E09518
:101060000B2EBA2FA02D0B01B90190010C01CA0162
:10107000A0011124FF27591B99F0593F50F4503E0D
:1010800068F11A16F040A22F232F342F4427585FFF
:10109000F3CF469537952795A795F0405395C9F717
:1010A0007EF41F16BA0B620B730B840BBAF09150CF
:1010B000A1F0FF0FBB1F661F771F881FC2F70EC06E
:1010C000BA0F621F731F841F48F487957795679541
:1010D000B795F7959E3F08F0B0CF9395880F08F02D
:1010E0009927EE0F9795879508950E9489080C948B
:1010F00071090E946A0958F00E94630940F029F4BE
:101100005F3F29F00C945A0951110C94A5090C94D5
:1011100060090E94820968F39923B1F3552391F382
:10112000951B550BBB27AA2762177307840738F056
:101130009F5F5F4F220F331F441FAA1FA9F335D0B3
:101140000E2E3AF0E0E832D091505040E695001C67
:10115000CAF72BD0FE2F29D0660F771F881FBB1F21
:10116000261737074807AB07B0E809F0BB0B802DFF
:10117000BF01FF2793585F4F3AF09E3F510578F02B
:101180000C945A090C94A5095F3FE4F3983ED4F3FC
:10119000869577956795B795F7959F5FC9F7880FFF
:1011A000911D9695879597F90895E1E0660F771F51
:1011B000881FBB1F621773078407BA0720F0621BE2
:1011C000730B840BBA0BEE1F88F7E09508950E940D
:1011D000EE086894B1110C94A50908950E948A093B
:1011E00088F09F5798F0B92F9927B751B0F0E1F0E8
:1011F000660F771F881F991F1AF0BA95C9F714C098
:10120000B13091F00E94A409B1E008950C94A409B2
:10121000672F782F8827B85F39F0B93FCCF38695D0
:1012200077956795B395D9F73EF49095809570952D
:1012300061957F4F8F4F9F4F0895E89409C097FBAA
:101240003EF490958095709561957F4F8F4F9F4F9D
:101250009923A9F0F92F96E9BB279395F6958795E1
:1012600077956795B795F111F8CFFAF4BB0F11F4A4
:1012700060FF1BC06F5F7F4F8F4F9F4F16C088234B
:1012800011F096E911C0772321F09EE8872F762F81
:1012900005C0662371F096E8862F70E060E02AF0C2
:1012A0009A95660F771F881FDAF7880F96958795AE
:1012B00097F9089597F99F6780E870E060E00895D6
:1012C0009FEF80EC089500240A941616170618065E
:1012D0000906089500240A9412161306140605063A
:1012E0000895092E0394000C11F4882352F0BB0FCB
:1012F00040F4BF2B11F460FF04C06F5F7F4F8F4F2E
:101300009F4F089557FD9058440F551F59F05F3F68
:1013100071F04795880F97FB991F61F09F3F79F017
:1013200087950895121613061406551FF2CF469599
:10133000F1DF08C0161617061806991FF1CF86951B
:101340007105610508940895E894BB2766277727FF
:10135000CB0197F908950E941D0A08F48FEF0895B4
:101360000E94C3090C9471090E94630938F00E941D
:101370006A0920F0952311F00C945A090C94600925
:1013800011240C94A5090E94820970F3959FC1F362
:10139000950F50E0551F629FF001729FBB27F00D23
:1013A000B11D639FAA27F00DB11DAA1F649F662778
:1013B000B00DA11D661F829F2227B00DA11D621FC7
:1013C000739FB00DA11D621F839FA00D611D221F81
:1013D000749F3327A00D611D231F849F600D211D65
:1013E000822F762F6A2F11249F5750409AF0F1F0E8
:1013F00088234AF0EE0FFF1FBB1F661F771F881F51
:1014000091505040A9F79E3F510580F00C945A0925
:101410000C94A5095F3FE4F3983ED4F38695779545
:101420006795B795F795E7959F5FC1F7FE2B880FF6
:10143000911D9695879597F90895990F0008550F76
:10144000AA0BE0E8FEEF16161706E807F907C0F04A
:1014500012161306E407F50798F0621B730B840B52
:10146000950B39F40A2661F0232B242B252B21F42C
:1014700008950A2609F4A140A6958FEF811D811DCC
:101480000895EE0FFF1F0590F491E02D0994F89454
:02149000FFCF8C
:101492000405050404030203040506050404070702
:1014A20095009502950891089104910081008900A8
:1014B20089048D048D068D028D004902B50AAD05A1
:00000001FF
