:020000040000FA
:100000000C9462000C948A000C948A000C948A0070
:100010000C948A000C948A000C948A000C948A0038
:100020000C948A000C948A000C948A000C948A0028
:100030000C948A000C948A000C948A000C948A0018
:100040000C949C010C948A000C948A000C948A00F5
:100050000C948A000C948A000C948A000C948A00F8
:100060000C948A000C948A000000000024002700F1
:100070002A0000000000250028002B0000000000DE
:1000800023002600290004040404040404040202DA
:100090000202020203030303030301020408102007
:1000A0004080010204081020010204081020000012
:1000B0000008000201000003040700000000000027
:1000C0000000EC0411241FBECFEFD8E0DEBFCDBF8F
:1000D00011E0A0E0B1E0ECE4FEE002C005900D927A
:1000E000A030B107D9F721E0A0E0B1E001C01D9236
:1000F000A732B207E1F710E0C2E6D0E004C02197D2
:10010000FE010E941E07C136D107C9F70E94E60111
:100110000C9424070C9400000F931F93ECE1F1E082
:1001200080819181A281B3818C019D014DE0000FFE
:10013000111F221F331F4A95D1F7082719272A2795
:100140003B27D901C80151E1B695A79597958795A9
:100150005A95D1F7082719272A273B27D901C80123
:1001600065E0880F991FAA1FBB1F6A95D1F7082762
:1001700019272A273B27008311832283338399275A
:10018000832F722F612F0E94FA0520E030E040E8B3
:1001900053E30E94B1061F910F910895833081F0BF
:1001A00028F4813099F08230A9F008958730A9F0C1
:1001B0008830C9F08430B1F4809180008F7D03C015
:1001C000809180008F7780938000089584B58F7729
:1001D00084BD089584B58F7DFBCF8091B0008F776B
:1001E0008093B00008958091B0008F7DF9CFCF93B8
:1001F000DF93282F30E0F901E255FF4F8491F90198
:10020000E656FF4FD491F901EA57FF4FC491CC2332
:10021000A1F081110E94CE00EC2FF0E0EE0FFF1F45
:10022000E458FF4FA591B491EC91ED2381E090E06B
:1002300009F480E0DF91CF91089580E090E0FACF5B
:100240001F93CF93DF93282F30E0F901E255FF4F42
:100250008491F901E656FF4FD491F901EA57FF4F17
:10026000C491CC23A9F0162F81110E94CE00EC2F4F
:10027000F0E0EE0FFF1FEE58FF4FA591B4918FB73E
:10028000F894EC91111108C0D095DE23DC938FBF58
:10029000DF91CF911F910895DE2BF8CFCF93DF939D
:1002A00090E0FC01E656FF4F24918A579F4FFC01D6
:1002B00084918823C9F090E0880F991FFC01E859C8
:1002C000FF4FA591B491FC01EE58FF4FC591D49119
:1002D00061110DC09FB7F8948C91209582238C9367
:1002E0008881282328839FBFDF91CF9108956230B2
:1002F00051F49FB7F8943C91822F809583238C937F
:10030000E8812E2BEFCF8FB7F894EC912E2B2C9306
:100310008FBFEACF8E50806480937C0080917A00FA
:10032000806480937A0080917A0086FDFCCF809172
:1003300078009091790008951F920F920FB60F9256
:1003400011242F933F938F939F93AF93BF938091EB
:10035000180190911901A0911A01B0911B013091DF
:10036000170123E0230F2D3758F50196A11DB11D6C
:10037000209317018093180190931901A0931A01FB
:10038000B0931B018091130190911401A09115016C
:10039000B09116010196A11DB11D80931301909398
:1003A0001401A0931501B0931601BF91AF919F91D5
:1003B0008F913F912F910F900FBE0F901F90189526
:1003C00026E8230F0296A11DB11DD2CFCF93DF9354
:1003D000CDB7DEB72C970FB6F894DEBF0FBECDBFFA
:1003E000789484B5826084BD84B5816084BD85B510
:1003F000826085BD85B5816085BD80916E0081601C
:1004000080936E00109281008091810082608093C1
:1004100081008091810081608093810080918000C3
:100420008160809380008091B10084608093B100EE
:100430008091B00081608093B00080917A008460E8
:1004400080937A0080917A00826080937A00809114
:100450007A00816080937A0080917A00806880932E
:100460007A001092C10060E081E10E944E0162E0DA
:1004700084E00E944E0120E12983C12CD12C760119
:1004800082E10E948A01F3E0CC0CDD1CEE1CFF1C13
:10049000FA95D1F7AC01990F660B770BC426D526D8
:1004A000E626F72683E10E948A01092E000CAA0B9A
:1004B000BB0B15E0880F991FAA1FBB1F1A95D1F718
:1004C000C826D926EA26FB263981315039833111D5
:1004D000D7CF9FB7F89440911301509114016091C8
:1004E00015017091160186B5A89B06C08F3F21F0BB
:1004F0004F5F5F4F6F4F7F4F9FBF762F652F542FFA
:100500004427480F511D611D711DE2E0440F551F26
:10051000661F771FEA95D1F7D701C6018427952773
:10052000A627B727C416D506E606F70621F481E00C
:1005300090E0A0E0B0E080931C0190931D01A09397
:100540001E01B0931F0161E089E00E944E0161E04D
:100550008AE00E944E0161E08BE00E944E0161E062
:1005600083E00E944E0160E089E00E94200160E08B
:100570008AE00E94200160E08BE00E94200160E0A0
:1005800083E00E9420012FB7F89480911801909188
:100590001901A0911A01B0911B012FBF80930F0187
:1005A00090931001A0931101B093120111E08FB745
:1005B000F894209118013091190140911A0150913D
:1005C0001B0129833A834B835C838FBF80910F018A
:1005D00090911001A0911101B0911201281B390BCB
:1005E0004A0B5B0BCA01B9010E94FA0520E030E01A
:1005F0004AE754E40E9488056D837E838F83988741
:1006000020E030E0A9010E948305181644F08FE62F
:1006100092E1A3E8BAE38D839E83AF83B8872981F3
:100620003A814B815C8120930F01309310014093FC
:1006300011015093120180E10E948A01BC01990FBF
:10064000880B990B0E94FC0520E030EC4FE754E446
:100650000E94880569877A878B879C878FE00E9434
:100660008A01BC01990F880B990B0E94FC0520E0C0
:1006700030EC4FE754E40E9488056B017C018EE06A
:100680000E948A01BC01990F880B990B0E94FC05FE
:1006900020E030EC4FE754E40E9488052AEA31EF6D
:1006A00042E85FE30E94B1064B015C0120E030E0CC
:1006B000A9010E94830587FDE7C020E030E040E803
:1006C0005FE3C501B4010E94AC0618160CF4E0C04B
:1006D0002AEA31EF42E85FE3C701B6010E94B106A2
:1006E0006B017C0120E030E0A9010E94830587FDB9
:1006F000D6C020E030E040E85FE3C701B6010E94C9
:10070000AC0618160CF4CFC02AEA31EF42E85FE3DA
:1007100069857A858B859C850E94B1062B013C01F9
:1007200020E030E0A9010E94830587FDC3C020E0DE
:1007300030E040E85FE3C301B2010E94AC06181646
:100740000CF4BCC081E10E94F70020910C01211142
:1007500003C091E0813009F090E090930D012130C9
:1007600011F491E0811190E090930E0180930C01BF
:1007700084E00E94F70010920A0110920B01909100
:100780000901891771F08093090189819A81AB81F0
:10079000BC818093040190930501A0930601B0935E
:1007A00007018091040190910501A0910601B0918B
:1007B000070129813A814B815C81281B390B4A0B47
:1007C0005B0BDA01C9014091000150910101609178
:1007D000020170910301481759076A077B07B0F4BB
:1007E0009091080180910901981781F08093080188
:1007F000911103C021E0813009F020E020930A012B
:10080000913009F4811190E090930B0180910D01DA
:1008100081115BC080910B01811157C0C0902301F1
:10082000D0902401E0902501F090260120E030E0F6
:10083000A901C701B6010E94AC0618160CF4A3C0AA
:1008400060912001E0902101D0902201F62E6111EB
:1008500004C0FE2CE11001C0FD2C89E00E942001A3
:100860006E2D8AE00E9420016D2D8BE00E942001F8
:100870006F2D83E00E942001A0E0B0E0AB2B09F4D3
:1008800096CE0E94000093CE812C912C540120CF53
:10089000812C912C20E8A22E2FE3B22E19CFC12C4F
:1008A000D12C760131CFC12CD12C90E8E92E9FE3D9
:1008B000F92E2ACF412C512C320144CF412C512CFE
:1008C00080E8682E8FE3782E3DCF1092220110929F
:1008D00021011092200120E93EE34AE75FE36985A8
:1008E0007A858B859C850E94AC06181634F50E948B
:1008F0008C009B01AC01C501B4010E94AC06181626
:100900007CF4109320018AE097EDA3E2BCE380938E
:10091000230190932401A0932501B093260190CF49
:100920000E948C009B01AC01C701B6010E94AC067D
:10093000181634F510932101E6CF0E948C009B011C
:10094000AC01C501B4010E94AC06181614F4109352
:1009500020010E948C009B01AC01C701B6010E94DE
:10096000AC06181614F4109321010E948C009B0110
:10097000AC01C301B2010E94AC0618160CF0C3CF43
:1009800010932201C0CF2D813E814F815885C70130
:10099000B6010E9416056B017C0120E030E0A90140
:1009A0000E94830518164CF4C0922301D0922401B2
:1009B000E0922501F092260143CF1092230110927C
:1009C000240110922501109226011092220110920A
:1009D00021011092200134CFECE1F1E089EB99E79D
:1009E000A7E3BEE980839183A283B3831482158237
:1009F00016821782108611861286ECE0F1E01082D2
:100A000011821282E0E0F1E084E190E0A0E0B0E049
:100A100080839183A283B383148215821682178206
:100A200081E0808781871286138608955058BB27FE
:100A3000AA270E942E050C9472060E94640638F0C4
:100A40000E946B0620F039F49F3F19F426F40C94B1
:100A500061060EF4E095E7FB0C945B06E92F0E941B
:100A6000830658F3BA17620773078407950720F0C7
:100A700079F4A6F50C94A5060EF4E0950B2EBA2F8A
:100A8000A02D0B01B90190010C01CA01A001112494
:100A9000FF27591B99F0593F50F4503E68F11A1640
:100AA000F040A22F232F342F4427585FF3CF4695D1
:100AB00037952795A795F0405395C9F77EF41F16F3
:100AC000BA0B620B730B840BBAF09150A1F0FF0FBD
:100AD000BB1F661F771F881FC2F70EC0BA0F621FA9
:100AE000731F841F48F4879577956795B795F79599
:100AF0009E3F08F0B0CF9395880F08F09927EE0F2E
:100B00009795879508950E94370608F481E0089527
:100B10000E949C050C9472060E946B0658F00E947D
:100B2000640640F029F45F3F29F00C945B065111F4
:100B30000C94A6060C9461060E94830668F3992320
:100B4000B1F3552391F3951B550BBB27AA276217C9
:100B50007307840738F09F5F5F4F220F331F441FD6
:100B6000AA1FA9F335D00E2E3AF0E0E832D091500A
:100B70005040E695001CCAF72BD0FE2F29D0660FF7
:100B8000771F881FBB1F261737074807AB07B0E83A
:100B900009F0BB0B802DBF01FF2793585F4F3AF040
:100BA0009E3F510578F00C945B060C94A6065F3FBF
:100BB000E4F3983ED4F3869577956795B795F795C6
:100BC0009F5FC9F7880F911D9695879597F90895AE
:100BD000E1E0660F771F881FBB1F6217730784074A
:100BE000BA0720F0621B730B840BBA0BEE1F88F759
:100BF000E0950895E89409C097FB3EF490958095A0
:100C0000709561957F4F8F4F9F4F9923A9F0F92FD2
:100C100096E9BB279395F695879577956795B79550
:100C2000F111F8CFFAF4BB0F11F460FF1BC06F5F36
:100C30007F4F8F4F9F4F16C0882311F096E911C048
:100C4000772321F09EE8872F762F05C0662371F069
:100C500096E8862F70E060E02AF09A95660F771F7D
:100C6000881FDAF7880F9695879597F90895990F59
:100C70000008550FAA0BE0E8FEEF16161706E80766
:100C8000F907C0F012161306E407F50798F0621B87
:100C9000730B840B950B39F40A2661F0232B242B5C
:100CA000252B21F408950A2609F4A140A6958FEF7B
:100CB000811D811D089597F99F6780E870E060E0CD
:100CC00008959FEF80EC089500240A9416161706E5
:100CD00018060906089500240A941216130614062D
:100CE00005060895092E0394000C11F4882352F090
:100CF000BB0F40F4BF2B11F460FF04C06F5F7F4F48
:100D00008F4F9F4F089557FD9058440F551F59F02E
:100D10005F3F71F04795880F97FB991F61F09F3FE8
:100D200079F087950895121613061406551FF2CF11
:100D30004695F1DF08C0161617061806991FF1CF61
:100D400086957105610508940895E894BB27662788
:100D50007727CB0197F908950E94370608F48FEFA3
:100D600008950E94C4060C9472060E94640638F02E
:100D70000E946B0620F0952311F00C945B060C94F6
:100D8000610611240C94A6060E94830670F3959FB9
:100D9000C1F3950F50E0551F629FF001729FBB2772
:100DA000F00DB11D639FAA27F00DB11DAA1F649F0E
:100DB0006627B00DA11D661F829F2227B00DA11DC1
:100DC000621F739FB00DA11D621F839FA00D611D47
:100DD000221F749F3327A00D611D231F849F600D68
:100DE000211D822F762F6A2F11249F5750409AF091
:100DF000F1F088234AF0EE0FFF1FBB1F661F771F1D
:100E0000881F91505040A9F79E3F510580F00C94E7
:100E10005B060C94A6065F3FE4F3983ED4F38695F8
:100E200077956795B795F795E7959F5FC1F7FE2B87
:100E3000880F911D9695879597F90895EE0FFF1FDE
:0C0E40000590F491E02D0994F894FFCF88
:107E0000112484B714BE81FFF0D085E080938100F7
:107E100082E08093C00088E18093C10086E0809377
:107E2000C20080E18093C4008EE0C9D0259A86E02C
:107E300020E33CEF91E0309385002093840096BBD3
:107E4000B09BFECF1D9AA8958150A9F7CC24DD24C4
:107E500088248394B5E0AB2EA1E19A2EF3E0BF2EE7
:107E6000A2D0813461F49FD0082FAFD0023811F036
:107E7000013811F484E001C083E08DD089C08234E0
:107E800011F484E103C0853419F485E0A6D080C0E4
:107E9000853579F488D0E82EFF2485D0082F10E0AE
:107EA000102F00270E291F29000F111F8ED06801E7
:107EB0006FC0863521F484E090D080E0DECF843638
:107EC00009F040C070D06FD0082F6DD080E0C81688
:107ED00080E7D80618F4F601B7BEE895C0E0D1E017
:107EE00062D089930C17E1F7F0E0CF16F0E7DF06D8
:107EF00018F0F601B7BEE89568D007B600FCFDCFD4
:107F0000A601A0E0B1E02C9130E011968C91119780
:107F100090E0982F8827822B932B1296FA010C0160
:107F200087BEE89511244E5F5F4FF1E0A038BF0790
:107F300051F7F601A7BEE89507B600FCFDCF97BE46
:107F4000E89526C08437B1F42ED02DD0F82E2BD052
:107F50003CD0F601EF2C8F010F5F1F4F84911BD097
:107F6000EA94F801C1F70894C11CD11CFA94CF0C13
:107F7000D11C0EC0853739F428D08EE10CD085E9AC
:107F80000AD08FE07ACF813511F488E018D01DD067
:107F900080E101D065CF982F8091C00085FFFCCF94
:107FA0009093C60008958091C00087FFFCCF809118
:107FB000C00084FD01C0A8958091C6000895E0E648
:107FC000F0E098E1908380830895EDDF803219F02E
:107FD00088E0F5DFFFCF84E1DECF1F93182FE3DFCA
:107FE0001150E9F7F2DF1F91089580E0E8DFEE27F6
:047FF000FF270994CA
:027FFE00040479
:00000001FF
